:020000040800F2
:10000000A8260020991800082505000827050008E3
:100010002B0500082F05000833050008000000002C
:10002000000000000000000000000000370500088C
:1000300039050008000000003B0500083D050008E8
:10004000B3180008B3180008B3180008B318000864
:10005000B3180008B3180008ED0B0008B318000827
:10006000B3180008B3180008B3180008B318000844
:10007000B3180008B3180008B3180008B318000834
:10008000B3180008B3180008B3180008B318000824
:10009000B3180008B3180008B3180008B318000814
:1000A000B3180008B3180008B3180008B318000804
:1000B00097070008B31800081F0A0008B3180008C3
:1000C000B3180008B3180008B3180008B3180008E4
:1000D000B318000819180008130800086F0A000870
:1000E000B3180008B3180008B3180008B3180008C4
:1000F000B3180008B3180008B3180008B3180008B4
:10010000B3180008B3180008B3180008B3180008A3
:10011000B3180008B3180008B3180008B318000893
:10012000B3180008B3180008B3180008B318000883
:1001300000F002F800F0B6F80AA090E8000C824443
:100140008344AAF10107DA4501D100F0ABF8AFF220
:10015000090EBAE80F0013F0010F18BFFB1A43F0A5
:1001600001031847E46A0000046B000010F8013B2B
:100170000A4413F0030408BF10F8014B1D1108BF17
:1001800010F8015B641E05D010F8016B641E01F8C5
:10019000016BF9D1002D15D010F8014B03F00C03C1
:1001A0000C2BA1EB04040ABF10F8013BA4EB831451
:1001B000A4EB032405F1010314F8016B5B1E01F8A5
:1001C000016BF9D5914238BF10F8013BD1D370478C
:1001D0000023002400250026103A28BF78C1FBD850
:1001E000520728BF30C148BF0B6070476E2903F02B
:1001F0008D87702903F0FE85662906F01C84652929
:1002000006F01984672906F016846129AFF300808F
:1002100003681B0A28BF41F08001692903F06E853D
:10022000642903F06B85752903F068856F2904F054
:100230008F82782903F0CA85E92904F02782E4290E
:1002400004F02482F52904F02182EF2904F08C8245
:10025000F82903F0C9850368DB0928BF41F0800154
:10026000632904F09681732904F09B81E32904F04B
:100270004B83F32904F05083002070471FB506F02C
:1002800028FB04F0A7FA04000020002105F00EFB73
:10029000401C60600020002105F0F2FAE0601FBD04
:1002A00010B510BD04F0F8FB1146FFF7E7FF00F0B2
:1002B00034F804F01FFC03B4FFF7F2FF03BC01F0B5
:1002C00039FA00000EB50021009101910291002041
:1002D0007A49096800917A49D1F8EC170191794976
:1002E0000968029100994FEA5101019A01EB9201CC
:1002F000029A01EBD2004FF00701734A11704FF0E0
:100300002401517090704FEA1021D1704FEA1041D2
:1003100011714FEA106151710EBDACB00126642716
:1003200001F0A0F901F000FA4FF4E13000F0E8FA32
:1003300000F0EAF900F0FDF900F068FC00F0EFFCD5
:1003400000F056FFFFF7BEFF00F018FC11E003F0CD
:10035000F0F90646012E06D0022E05D0032E04D059
:10036000042E03D103E003E002E001E000BF00BF80
:1003700000BF002EEBD1012604E054A155A003F0EC
:1003800004FA0646002EF8D14FF47A7001F0A1F974
:1003900092E054480078012813D100205149087098
:1003A00003F006FC064666B1012E04D141034E4817
:1003B00001F01BFC05E0022E03D131034A4801F095
:1003C00012FC4FF4FA7001F084F93F484379027946
:1003D000C17880788DE80F003B484378027843A1CC
:1003E0000DF1110003F022FC04A803F08BFA06467D
:1003F0002BA800F03AFD2B9805F0E0FF04460D46CF
:1004000004A803F0E9FD04A900EB010822462B46ED
:100410003EA1404603F00AFC2AA801F0ADF82A9854
:1004200005F0CCFF04460D4604A803F0D5FD04A951
:1004300000EB010822462B4636A1404603F0F6FBAE
:1004400004A803F0C9FD04A944183A4633A1204684
:1004500003F0ECFB3248006848F2800108422BD0E0
:100460002F48006810F4004F03D030208DF81000A2
:1004700007E02B48006810F0800F02D031208DF883
:1004800010000020264908600121084601F0C0FD47
:100490000121880702F023FC04A803F0B3F9064603
:1004A00006B100BF04E009A10AA003F06EF90646F8
:1004B000002EF8D100BF00BF6BE70000E8F7FF1F78
:1004C00000F0FF1FF0F7FF1F00080020313231332A
:1004D0003800000034372E3130332E36382E383184
:1004E0000000000049080020001001402C25303297
:1004F000783A253032783A253032783A25303278D9
:100500003A253032783A25303278000025362E32BE
:10051000660000002C25362E326600002C25640073
:1005200024080020704700BFFEE700BFFEE700BFC1
:10053000FEE700BFFEE77047704770477047000056
:1005400000210020674A126842F48032654B1A602D
:1005500000BF644A126802F40030491C10B9B1F5BA
:10056000A06FF6D15F4A126812F4003F01D001205B
:1005700000E00020012842D15B4A126842F01002DC
:10058000594B1A601A46126822F003021A601A4682
:10059000126842F002021A60524A5268514B5A6085
:1005A0001A4652685A601A46526842F480625A608B
:1005B0001A46526822F47C125A601A46526842F473
:1005C000E8125A601A46126842F080721A6000BF40
:1005D000444A126812F0007FFAD0424A526822F070
:1005E0000302404B5A601A46526842F002025A60B7
:1005F00000BF3C4A526802F00C02082AF9D1704749
:1006000010B5FFF79DFF10BD10B53648006840F0EB
:1006100001003449086008464068344908403149BF
:10062000486008460068324908402E49086008467C
:10063000006820F4802008600846406820F4FE002E
:1006400048604FF41F008860FFF7DAFF4FF000604A
:100650002849086010BD10B5002100200022214B60
:100660005B6803F00C0121B1042906D0082928D1C8
:1006700007E0214B214C236027E01F4B1F4C2360D8
:1006800023E0184B5B6803F47010164B5B6803F4AF
:100690008032022303EB904022B9194B4343174C9D
:1006A00023600DE00F4B5B6813F4003F04D0144B44
:1006B0004343124C236003E00F4B43430F4C236032
:1006C00003E00D4B0D4C236000BF00BF054B5B6882
:1006D000C3F303130B4CE15C084B1B68CB40074C86
:1006E000236010BD00100240002002400000FFF80F
:1006F000FFFFF6FE08ED00E000127A000808002077
:1007000000093D000C08002008B54FF4E06001F03E
:10071000E3F81C208DF8000000208DF80100032074
:100720008DF8020001208DF80300684601F0D9F829
:1007300008BD0EB50121084601F06AFC4FF080406B
:1007400001F0CAFE4FF47A70ADF804004720ADF80E
:1007500000000020ADF8020069464FF0804001F033
:100760008FFF0121880702F077FD012211469007D3
:1007700002F0DBFA0121880702F0B1FA01210846F4
:1007800001F046FC0121084601F042FC01218807E6
:1007900002F0A5FA0EBD10B50121880702F05FFD39
:1007A00000B30121880702F06BFD0F480088401C50
:1007B0000D4908800846008841F28831884211DDE1
:1007C00000214FF0804002F08AFA0021012001F060
:1007D0001FFC0648006840F40040044908600020FF
:1007E0000149088010BD00001C08002024080020DA
:1007F00010B5044644B10021D14802F0FBFC0121B0
:10080000CF4802F06CFA03E00021CD4802F067FA0D
:1008100010BD10B540F22551CA4801F01AFE08B3C8
:10082000C84801F096FDC4B2C7480088B0F5806F93
:1008300012DA0021C24802F0DDFCC348008810B97A
:100840000120FFF7D5FFC04801880088401CBE4A40
:100850001080BE48445405E0BB48008840F4004086
:10086000B949088010BD7FB505460C46012104201A
:1008700001F0CEFBADF80450ADF800400020ADF81B
:100880000600ADF802006946AD4801F0F9FE01220C
:100890001146AB4802F049FA1E208DF80C000120E9
:1008A0008DF80D0002208DF80E0001208DF80F004C
:1008B00003A801F016F87FBD70B58CB006460C4653
:1008C00015460121084601F089FB304602F0DCFCA8
:1008D0000194029510200390002004900590802040
:1008E000069000200790089009904FF480500A90DD
:1008F00000200B9001A9304602F066FD0CB070BDDF
:1009000010B586B004460121042001F074FB0121DA
:10091000480401F07DFB8B4801F0D8FB0420ADF8C2
:10092000100003208DF8120018208DF8130004A980
:10093000874801F0ADF80820ADF8100004208DF8CC
:10094000130004A9824801F0A3F800940020ADF838
:100950000400ADF80600ADF80800ADF80C000C205E
:10096000ADF80A006946774801F0F3FB01228021C7
:10097000744801F0ABFC7349091D764A7648FFF7CD
:100980009BFF01216F4801F070FC012240F22551CC
:100990006C4801F076FC26208DF8140002208DF8BA
:1009A000150003208DF8160001208DF8170005A80A
:1009B00000F097FF41F61F416320FFF754FF00202E
:1009C00061490880FFF714FF06B010BD70B50446FA
:1009D0000D460021204602F022FD2946204602F065
:1009E00033FD0121204602F01AFD70BD0FB438B569
:1009F00005A800905748009A049903F0F9F800BF41
:100A0000564800680028FBD1524803F0E5FA84B24A
:100A100021465148FFF7DAFF38BC5DF814FB10B5EA
:100A20000121474802F01BFC00B34748008840F40E
:100A30000040454908800121414802F021FC002086
:100A4000FFF7D6FE4648007880B900203E49098865
:100A5000C1F30E013D4A50543B49088041A1104664
:100A600003F0A8FA10B101204049087010BD10B57C
:100A700040F225513E4801F0ECFC10B13C4801F039
:100A800068FC10BD10B586B004460121082001F0B5
:100A9000B2FA0121880401F0BBFA354801F016FBD7
:100AA0004FF48060ADF8100003208DF8120018207C
:100AB0008DF8130004A92F4800F0EAFF4FF40060FE
:100AC000ADF8100004208DF8130004A9294800F0A7
:100AD000DFFF00940020ADF80400ADF80600ADF88B
:100AE0000800ADF80C000C20ADF80A00694620485B
:100AF00001F02FFB012280211D4801F0E7FB1C497A
:100B0000091D1D4A1448FFF7D7FE0121184801F0BE
:100B1000ACFB012240F22551154801F0B2FB272021
:100B20008DF8140002208DF8150003208DF81600B2
:100B300001208DF8170005A800F0D3FE06B010BD07
:100B400000080040004400401E080020581000200B
:100B50000008014058080020800002408400024044
:100B6000200800202B4950440000000049080020C4
:100B700000480040000C0140580C00201FB5012027
:100B8000ADF8000002208DF8020048208DF8030027
:100B900069461C4800F07CFF0121102001F02BFA6F
:100BA0000121084601F027FA0021084601F084F8E7
:100BB0000120029000208DF80C0001208DF80E001D
:100BC0000C208DF80D0002A802F091FC06208DF893
:100BD000040002208DF8050003208DF80600012096
:100BE0008DF8070001A800F07CFE1FBD10B50120A4
:100BF00002F0EAFC28B1802003490860012002F0DD
:100C0000F4FC10BD000801402408002008B50121B3
:100C1000042001F0F0F94FF40060ADF8000010205E
:100C20008DF8030003208DF802006946044800F0A7
:100C30002FFF4FF40061024800F0D5FF08BD00000F
:100C40000008014000E0401E0028FCD1704770B54C
:100C500004460E4644F0800400221021FF4800F0B4
:100C6000C6FF1420FFF7EEFF002521E0002220211F
:100C7000FA4800F0BCFF14F0800F05D0012280215B
:100C8000F64800F0B4FF04E000228021F34800F0B1
:100C9000AEFF1420FFF7D6FF01222021EF4800F01D
:100CA000A6FF6006040E1420FFF7CCFF681CC5B237
:100CB000082DDBDB002524E000222021E74800F09E
:100CC00096FF1420FFF7BEFF16F0800F05D001221B
:100CD0008021E24800F08BFF04E000228021DF4801
:100CE00000F085FF1420FFF7ADFF01222021DB4833
:100CF00000F07DFF7006060E1420FFF7A3FF681CAE
:100D0000C5B2082DD8DB01221021D44800F06FFFB6
:100D100070BD10B5D3210020FFF799FF10BD08B5B5
:100D200001210C2001F067F91020ADF8000003202C
:100D30008DF8020010208DF803006946C74800F0C6
:100D4000A7FE2020ADF8000003208DF8020010203F
:100D50008DF803006946C14800F09AFE8020ADF886
:100D6000000003208DF8020010208DF80300694672
:100D7000BA4800F08DFE4020ADF8000004208DF848
:100D800003006946B54800F083FE0120ADF800007D
:100D900004208DF803006946B14800F079FE012275
:100DA0001021AE4800F023FF01222021AB4800F0C3
:100DB0001EFFFFF7AEFF08BD70B5064600240022F7
:100DC0001021A64800F013FF1420FFF73BFF002579
:100DD00021E000222021A14800F009FF16F0800F39
:100DE00005D0012280219D4800F001FF04E000228F
:100DF00080219A4800F0FBFE1420FFF723FF012218
:100E00002021964800F0F3FE7006060E1420FFF72E
:100E100019FF681CC5B2082DDBDB00251CE0002291
:100E200020218E4800F0E3FE1420FFF70BFF600640
:100E3000040E01222021894800F0D9FE4021874874
:100E400000F0B7FE10B144F0010400E000BF142030
:100E5000FFF7F8FE681CC5B2082DE0DB0122102167
:100E60007E4800F0C4FE204670BD2DE9F04F91B0E1
:100E700004467C480F90DFF8F0817C480D900720F5
:100E8000FFF79AFF05460120FFF796FF05020220B3
:100E9000FFF792FF054315F0010F05D000202060F9
:100EA000022011B0BDE8F08F6D08284605F002FC65
:100EB000059005F083FA00226D4BCDE9060104F0A0
:100EC000F7FD00226B4BCDE9080104F09DFFCDE951
:100ED0000A0104F001FD064688F000494FF0814008
:100EE0000D9905F02FFC41460B90404605F02AFC79
:100EF0000A900B9905F02AFD82464FF081400D992A
:100F000005F020FC0B900F9905F0F2FA83464FF0A4
:100F100080400D9905F016FC0E903146584605F0BC
:100F200011FC51460B9005F075FA07460E9805F036
:100F300045FACDE90801484605F040FACDE904013B
:100F4000384605F03BFACDE9000104F073FCCDE929
:100F50000201DDE9042304F0F1FCCDE90601DDE93D
:100F6000082304F0A5FDCDE90A0104F0B5FC07460D
:100F70000021384605F0B9FC05D83846276005F051
:100F800079FBC0B28DE70C963B4F0C9805F016FA32
:100F90003A4A3B4BCDE9040104F036FFCDE90801A4
:100FA000384605F00BFACDE90601DDE9082304F027
:100FB000C5FCCDE90A0104F08FFC074631460C98C8
:100FC00005F0C0FB0C900C9805F0F8F92D4A2E4B5B
:100FD000CDE9040104F018FFCDE90801384605F019
:100FE000EDF9CDE90601DDE9082304F0A7FCCDE920
:100FF0000A0104F071FC074631460C9805F0A2FB8B
:101000000C900C9805F0DAF9204A214BCDE9040147
:1010100004F0FAFECDE90801384605F0CFF9CDE934
:101020000601DDE9082305F0DFF8CDE90A0104F047
:1010300053FC074631460C9805F084FB0C900C9845
:1010400005F0BCF9134A144BCDE9040104F0DCFEB1
:10105000CDE90801384605F0B1F91FE0000801406C
:10106000000C01400000C8423211803B7F051BB5D7
:101070000000E04000E07A401F0572C3F163CC5DE0
:101080004BC80140BB82C87D062F653F93C266C72F
:10109000E03DD43ECE563151E2425E3ECDE90601FE
:1010A000DDE9082305F0A0F8CDE90A0104F014FCFD
:1010B000074631460C9805F045FB0C900C9805F05E
:1010C0007DF90C4A0C4BCDE9040104F09DFECDE9FD
:1010D0000801384605F072F9CDE90601DDE908237B
:1010E00004F02CFCCDE90A0104F0F6FB074627606A
:1010F0000020D6E63EFAE46127F3E43D4FF4FA70AF
:1011000001E0411E88B20028FBDC704708B54FF4AF
:101110008070ADF8000003208DF8020014208DF8D7
:1011200003006946FF4800F0B3FC08BD10B54FF45A
:101130000071FC4800F059FDFFF7E0FFFFF7E6FF04
:101140004FF48071F74800F04EFDFFF7D7FF4FF4E2
:101150000071F44800F047FDFFF7D0FF4FF48071B5
:10116000F04800F042FDFFF7C9FF4FF40071ED4871
:1011700000F03BFDFFF7C2FF4FF40071E94800F0BB
:1011800032FDFFF7BBFF4FF48071E64800F02BFD06
:10119000FFF7B4FF4FF40071E24800F026FDFFF7BF
:1011A000ADFF10BD10B5FFF7B1FF4FF48071DD4802
:1011B00000F019FD4FF40071DA4800F016FDFFF75A
:1011C0009DFF00240FE04FF40071D64800F00BFDA6
:1011D000FFF794FF4FF40071D24800F006FDFFF7CF
:1011E0008DFF601CC4B2092CEDDBFFF79FFF10BD23
:1011F00008B50121082000F0FEFE4FF48070ADF824
:10120000000003208DF8020014208DF803006946C9
:10121000C44800F03DFC4FF40070ADF8000003201E
:101220008DF8020010208DF803006946BD4800F0DB
:101230002FFCFFF7B7FF08BD08B54FF48070ADF87D
:10124000000003208DF8020014208DF80300694689
:10125000B44800F01DFC08BD2DE9F041064600270A
:101260004FF40071AF4800F0C0FCFFF747FFFFF7F5
:101270004DFF80241DE0344205D04FF48071A94811
:1012800000F0B1FC04E04FF48071A64800F0ADFC22
:10129000FFF734FF4FF40071A24800F0A4FCFFF701
:1012A0002DFF4FF400719F4800F09FFCFFF726FFD1
:1012B0006410002CDFDCFFF7BFFF4FF4807199480A
:1012C00000F091FCFFF71AFF4FF40071954800F011
:1012D0008AFC00250BE0FFF711FF4FF48071914865
:1012E00000F067FC074607B904E0681C85B2B5F555
:1012F0007A7FF0DB00BF4FF400718A4800F075FC84
:101300003846BDE8F08170B5054600264FF40071FF
:10131000844800F06AFCFFF7F1FEFFF78DFF8024A0
:1013200015E0FFF7EBFE4FF400717E4800F05BFC28
:10133000FFF7E4FE4FF480717A4800F03AFC00B108
:1013400026434FF40071774800F04FFC6410002CE6
:10135000E7DCFFF7DBFE2DB14FF48071714800F040
:1013600044FC04E04FF480716E4800F03CFCFFF751
:10137000C5FE4FF400716B4800F035FCFFF7BEFE70
:101380004FF40071674800F030FCFFF7B7FE4FF4F0
:101390008071644800F027FC304670BD10B5002411
:1013A000FFF700FF1E20FFF757FF2044C4B220467E
:1013B00010BD70B504460D460026FFF7B7FE0720A6
:1013C000FFF74AFF06460120FFF79DFF207000202F
:1013D000FFF799FF2870304670BD70B505460024B0
:1013E000FFF7A4FE0620FFF737FF2044C4B2287899
:1013F000FFF732FF2044C4B2204670BD2DE9F0470C
:1014000006460F4690460024A146A246FFF78EFEF0
:10141000B8F1000F03D0B8F1010F0CD105E00320A3
:10142000FFF71AFF2044C4B206E00520FFF714FFBF
:101430002044C4B200E000BF00BFFFF7FDFE00255E
:1014400007E04FF48071374800F0B3FB00B903E0C8
:101450006D1C35488542F4D300BF4FF4807131488C
:1014600000F0A7FB012801D1601CC4B20120FFF7E6
:101470004AFF81460120FFF746FF82460020FFF722
:1014800042FF38704AEA092030802046BDE8F087E4
:101490002DE9F04F8BB083460E46304604F08EFFA8
:1014A000074604F04DF9044600224FF0804304F053
:1014B0009BFECDE90401584604F080FF04461B4A18
:1014C0001B4B04F03BFA07468846584604F076FF6B
:1014D00004460022174B04F097FC3A464346CDE9F8
:1014E000000104F0E5FA8146134A144B04F026FA91
:1014F000CDE90201DDE9042304F020FACDE906017B
:1015000004F0EAF90990099804F058FF04460C4ADF
:101510000C4B04F069FE81468A46099804F04EFFA0
:10152000074611E0000C014080841E009A999999A9
:1015300099A96D4000001E4085B185200725E53F33
:10154000185B0872505220403D4A3E4B04F05AFD51
:1015500004463D4A3D4B04F057FC4A465346CDE90C
:10156000040104F0A5FACDE9060104F0B5F90890EC
:1015700008980BB0BDE8F08F2DE9FC470446002524
:1015800000200190324FDFF8CC80002201A968468C
:10159000FFF734FF054625B1002020600120BDE89B
:1015A000FC87BDF8000005F085F88146294905F063
:1015B000C9F80646264904F02DFF20600020EEE71A
:1015C0002DE9FF5F0446002500200390DFF8889096
:1015D000DFF888A0DFF888B0012203A902A8FFF78E
:1015E0000DFF05463DB1FFF7D9FE00202060012028
:1015F00004B0BDE8F09FBDF8080005F05BF801906D
:10160000BDF8080005F056F81549009005F09AF865
:101610008046019905F096F80646BDF8080005F0E9
:1016200049F80E49019005F08DF880460A4904F00A
:10163000F1FE0746314604F0EDFE20600020D7E7BA
:1016400085B185200725E53F9A99999999A96D401B
:10165000CDCC1EC20AD7233CC5FE02C0BD52163DEA
:10166000F624D6B510B56FF0040000F08EF92A48C4
:1016700000682A49B0FBF1F0294908700846007853
:101680004FF47A7148432749088010BD0146244A27
:1016900012784A434FF0E0235A6100229A611A46B9
:1016A000126942F001021A6100BF4FF0E022106996
:1016B00010F0010F02D010F4803FF6D04FF0E0227E
:1016C000126922F001024FF0E0231A6100229A61B0
:1016D00070470146134A12884A434FF0E0235A618B
:1016E00000229A611A46126942F001021A6100BF93
:1016F0004FF0E022106910F0010F02D010F4803F8B
:10170000F6D04FF0E022126922F001024FF0E02300
:101710001A6100229A6170470808002000127A00BE
:10172000280800202A08002010B54FF4A06000F01F
:10173000D3F810BD014600BF704700BF514A128860
:1017400012F0400FFAD0C2B24F4B1A80704710B55A
:1017500086B00446012144F2050000F04CFC4FF431
:101760000070ADF8140003208DF8160018208DF8D5
:10177000170005A9454800F08BF94FF48060ADF8DB
:10178000140004208DF8170005A9404800F080F9E6
:1017900025208DF8000003208DF801008DF802004F
:1017A00001208DF80300684600F09BF801940020AA
:1017B000ADF80800ADF80A00ADF80C00ADF8100067
:1017C0000C20ADF80E0001A92E4800F0C2FC012249
:1017D00040F225512B4800F054FD0121294800F02A
:1017E00044FD0121084600F013FC0121880701F0A7
:1017F00076FA00202649088006B010BD10B50446D0
:101800002146204800F0A1FD00BF80211D4800F0C6
:101810000AFE0028F9D010BD10B540F22551194834
:1018200000F017FE28B3174800F093FDC4B2184823
:10183000008810F4004F23D115480088B0F5806F60
:1018400018DA00214FF0804001F0D4FC10480088E5
:1018500018B90121084600F0DBFB0121880701F0DF
:101860003EFA0B4801880088401C094A108009484C
:10187000445405E00648008840F4004004490880CC
:1018800010BD00000038014004380140000801404C
:101890002C080020581400200948804709480047B8
:1018A000FEE7FEE7FEE7FEE7FEE7FEE7FEE7FEE710
:1018B000FEE7FEE704480549054A064B704700006D
:1018C0000906000831010008A8200020A8260020F1
:1018D000A8220020A822002036490143364A116080
:1018E000704770B5002100230F22C4784CB3324CEE
:1018F000246804F4E064C4F5E0644FEA1421C1F103
:10190000040322FA01F2447804FA03F1847804EA29
:10191000020444EA01014FEA0111284C0678A1555E
:10192000047804F01F054FF0010404FA05F405786B
:101930004FEA65154FF0E02606EB8505C5F8004136
:1019400009E0047804F01F050124AC401C4D067822
:10195000761145F8264070BD1A4A0A4002431A4BD8
:101960001A60704741B1194A126842EA00024FF00A
:10197000E023C3F8102D07E0144A126822EA00029F
:101980004FF0E023C3F8102D7047042808D14FF022
:10199000E021096941F004014FF0E022116107E004
:1019A0004FF0E021096921F004014FF0E0221161BC
:1019B000704700000000FA050CED00E000E400E0D4
:1019C00080E100E080FFFF1F08ED00E010ED00E087
:1019D00010B50446CA48844208D10121042000F011
:1019E00024FB0021042000F020FB46E0C54884428F
:1019F00008D10121082000F018FB0021082000F088
:101A000014FB3AE0C048844208D10121102000F0C4
:101A10000CFB0021102000F008FB2EE0BB488442A4
:101A200008D10121202000F000FB0021202000F03F
:101A3000FCFA22E0B648844208D10121402000F09F
:101A4000F4FA0021402000F0F0FA16E0B148844298
:101A500008D10121802000F0E8FA0021802000F068
:101A6000E4FA0AE0AC48844207D10121801500F075
:101A7000DCFA0021A01500F0D8FA10BD10B5012144
:101A8000084600F0D2FA0021012000F0CEFA10BD85
:101A90002DE9F04102460025002600200023002405
:101AA000002791F803C00CF00F0591F803C01CF05B
:101AB000100F03D091F802C04CEA0505B1F800C040
:101AC0001CF0FF0F31D0146800202BE04FF0010C08
:101AD0000CFA00F3B1F800C00CEA03069E4220D1D4
:101AE00083004FF00F0C0CFA03F7BC4305FA03FC1C
:101AF0004CEA040491F803C0BCF1280F06D14FF062
:101B0000010C0CFA00FCC2F814C00AE091F803C002
:101B1000BCF1480F05D14FF0010C0CFA00FCC2F8E3
:101B200010C0401C0828D1D31460B1F800C0BCF12B
:101B3000FF0F34DD546800202EE000F1080C4FF058
:101B4000010808FA0CF3B1F800C00CEA03069E4243
:101B500021D183004FF00F0C0CFA03F7BC4305FAB8
:101B600003FC4CEA040491F803C0BCF1280F05D132
:101B700000F1080C08FA0CF8C2F8148091F803C0C0
:101B8000BCF1480F07D100F1080C4FF0010808FA2A
:101B90000CF8C2F81080401C0828CED35460BDE871
:101BA000F0814FF6FF710180022181700421C17024
:101BB00070470246002093680B4201D0012000E0EC
:101BC000002070470146886880B2704702460020B6
:101BD000D3680B4201D0012000E00020704701468D
:101BE000C86880B2704701617047416170470AB1AF
:101BF000016100E041617047C16070474FF480327D
:101C00000A4382618161826182698269704702460A
:101C10000020424B18684FF68073184040EA0210CB
:101C200008433E4B186070473D49C8617047F0B5A6
:101C30000A46002300240021002500F00046B6F1EA
:101C4000004F02D1354EF16901E0344E7168C0F3A6
:101C5000034583B200F44016B6F5401F08D121F0C9
:101C600070612E4E766826F070662C4F7E6012E012
:101C700000F48016B6F5801F06D1032606FA05F497
:101C8000A14341F0706106E0460D360103FA06F605
:101C9000B14341F0706122B1460D360103FA06F6F8
:101CA000314300F00046B6F1004F02D11B4EF16106
:101CB00001E01A4E7160F0BD30B500228B071C0F99
:101CC0000F2303FA04F2154B08338C1053F8243019
:101CD0009343124C08348D1044F8253023468C1061
:101CE00053F824308C07240F00FA04F423430B4CE0
:101CF00008348D1044F8253030BD0A49086070471B
:101D000000080140000C0140001001400014014097
:101D100000180140001C014000200140000001406B
:101D200000002042DC002042DB48006840F0010057
:101D3000D949086008464068D8490840D6494860F3
:101D400008460068D6490840D3490860084600683C
:101D500020F4802008600846406820F4FE004860B7
:101D60004FF41F0088607047CB49096821F4803127
:101D7000C94A11601146096821F480211160B0F54B
:101D8000803F03D0B0F5802F0ED106E0C24909682C
:101D900041F48031C04A116007E0BF49096841F44D
:101DA000A021BD4A116000E000BF00BF704710B520
:101DB00001460022002300204A11012A02D1B64C1C
:101DC000236806E0022A02D1B34C236A01E0B24C38
:101DD000636A01F01F02012494401C4201D00120DB
:101DE00000E0002010BD70B500240025002600BFD3
:101DF0003120FFF7DCFF0646641CB4F5A06F01D06C
:101E0000002EF5D03120FFF7D2FF08B1012500E008
:101E10000025284670BD014600209F4A106820F02A
:101E2000F80040EAC100106070479E4908607047A2
:101E300002460020984B586820F47C1042EA0103C7
:101E40001843954B5860704796490866704701469D
:101E50000020914A506820F003000843506070470A
:101E60008D48406800F00C007047014600208A4A07
:101E7000506820F0F0000843506070470146002091
:101E8000854A506820F4E06008435060704701467E
:101E90000020814A506820F4605040EAC100506040
:101EA000704729B17C4A527A02437B4B5A7206E052
:101EB000794A527AC343DBB21A40774B5A72704761
:101EC00079490860704701460020734A506820F441
:101ED00040400843506070470021744A11706E4AB8
:101EE00082F82010012802D0042808D103E0012143
:101EF0006E4A117004E005216C4A117000E000BFC9
:101F000000BF70476A49086070476349096A014326
:101F1000614A1162704767490860704730B5002117
:101F20000022002400235C4D6D6805F00C0121B1F6
:101F3000042905D0082923D105E05F4D056022E082
:101F40005D4D05601FE0544D6D6805F47012524DF3
:101F50006D6805F48034022505EB92421CB9574D9B
:101F6000554305600BE04C4D6D6815F4003F03D000
:101F7000524D5543056002E04F4D5543056002E068
:101F80004D4D056000BF00BF434D6D6805F0F00189
:101F900009094B4D6B5C0568DD4045603E4D6D6841
:101FA00005F4E061090A464D6B5C4568DD408560DB
:101FB000394D6D6805F46051C90A414D6B5C456847
:101FC000DD40C560344D6D6805F44041890B3D4DE1
:101FD0006B5CC568B5FBF3F5056130BD29B12E4AD0
:101FE000526902432C4B5A6104E02B4A52698243E6
:101FF000294B5A61704729B1274A92690243264BFF
:102000009A6104E0244A92698243234B9A617047A3
:1020100029B1214AD26902431F4BDA6104E01E4A0A
:10202000D26982431C4BDA61704729B11A4AD268DF
:102030000243194BDA6004E0174AD2688243164B18
:10204000DA60704729B1144A12690243124B1A61CF
:1020500004E0114A126982430F4B1A6170471A4912
:10206000086070470F49C86470470B49C8717047D2
:102070000948406A40F0807007494862704701464D
:102080000020054A92680A4201D0012000E00020A9
:102090007047014988727047001002400000FFF845
:1020A000FFFFF6FE00004242D800424220100240EC
:1020B000800442423C04424200127A0000093D0082
:1020C00034080020440800204004424210B5044671
:1020D000FC48844209D101218803FFF7A6FF0021B3
:1020E0004FF48040FFF7A1FF32E0F748844209D166
:1020F00001214804FFF7A6FF00214FF40030FFF74D
:10210000A1FF25E0F148844209D101218804FFF7AD
:1021100099FF00214FF48020FFF794FF18E0EC486E
:10212000844209D10121C804FFF78CFF00214FF43C
:102130000020FFF787FF0BE0E648844208D1012129
:102140000805FFF77FFF00214FF48010FFF77AFFAB
:1021500010BD2DE9F04786B005460E460024A24684
:1021600000BFA1460027B08900B100BF2F462C8ACE
:102170004CF6FF700440F08804432C82AC894EF684
:10218000F3100440B088318908437189084304433F
:10219000AC81AC8A4FF6FF400440B0890443AC8266
:1021A00001A8FFF7BBFEC748874202D1DDF810A0A7
:1021B00001E0DDF80CA0A88910F4004F08D00AEB6C
:1021C000CA0000EB0A1031684900B0FBF1F807E0E3
:1021D0000AEBCA0000EB0A1031688900B0FBF1F885
:1021E0006420B8FBF0F004012009642101FB108990
:1021F000A88910F4004F08D0322000EBC900B0FBD2
:10220000F1F000F00700044308E0322000EB091071
:102210006421B0FBF1F000F00F0004432C8106B004
:10222000BDE8F0874FF41651016000218180C18024
:1022300001810C21418100218181704710B5024646
:102240000020108A4FF2FF0318400B884C8823436C
:102250008C882343CC8823431843108210BD00216F
:10226000018041808180C180704721B1828942F420
:102270000052828104E082894DF6FF731A40828108
:102280007047F0B503460024002600250020A1F584
:1022900010676A3F00D100BF1846C1F3421401F035
:1022A0001F06012707FA06F5012C01D10C3004E0C6
:1022B000022C01D1103000E014301AB107682F430E
:1022C000076002E00768AF430760F0BD10B51AB1C0
:1022D000838A0B43838204E0838ACC43A4B22340E5
:1022E000838210BD028A4FF6F0731A400282028A7E
:1022F0000A430282704782894FF2FF731A4082813B
:1023000082890A438281704721B1828942F00202A8
:10231000828104E082894FF6FD731A408281704702
:10232000028A4FF6DF731A400282028A0A4302824F
:10233000704721B1028A42F48042028204E0028A9C
:102340004BF6FF731A4002827047C1F30802828085
:10235000704701468888C0F308007047818941F0C2
:10236000010181817047028BD2B20283028B42EA63
:10237000012202837047028B02F47F420283028BA8
:102380000A430283704721B1828A42F0200282828E
:1023900004E0828A4FF6DF731A408282704721B1CF
:1023A000828A42F01002828204E0828A4FF6EF7342
:1023B0001A408282704721B1828A42F008028282EA
:1023C00004E0828A4FF6F7731A408282704721B187
:1023D000828942F40042828103E08289C2F30E02C4
:1023E0008281704721B1828A42F40062828204E0D5
:1023F000828A4FF2FF731A4082827047828A4FF6B8
:10240000FB731A408282828A0A438282704721B11A
:10241000828A42F00202828204E0828A4FF6FD73D1
:102420001A408282704702460020B1F5007F00D139
:1024300000BF13880B4201D0012000E0002070474C
:1024400001F40072B2F5007F00D100BFCA430280E0
:10245000704770B502460024002300250020A1F536
:1024600010666A3E00D100BFC1F3421501F01F03A0
:10247000012606FA03F3012D02D19689334006E0C6
:10248000022D02D1168A334001E0968A33400C12A5
:10249000012606FA04F41688344013B10CB1012069
:1024A00000E0002070BD10B500220023A1F51064EB
:1024B0006A3C00D100BF0A1201249440A3B2DC435D
:1024C000048010BD00380140004400400048004036
:1024D000004C00400050004010B50446FF488442C4
:1024E00008D10121C014FFF7A0FD0021E014FFF77F
:1024F0009CFDC4E0B4F1804F08D101210846FFF7EC
:10250000A1FD00210120FFF79DFDB8E0F4488442C1
:1025100008D101210220FFF795FD00210220FFF7DD
:1025200091FDACE0EF48844208D101210420FFF77F
:1025300089FD00210420FFF785FDA0E0EA488442E0
:1025400008D101210820FFF77DFD00210820FFF7B9
:1025500079FD94E0E548844208D101211020FFF77D
:1025600071FD00211020FFF76DFD88E0E0488442F6
:1025700008D101212020FFF765FD00212020FFF771
:1025800061FD7CE0DB48844208D101214014FFF763
:102590004CFD00216014FFF748FD70E0D6488442EE
:1025A00009D10121C804FFF740FD00214FF40020AC
:1025B000FFF73BFD63E0D148844209D101210805C2
:1025C000FFF733FD00214FF48010FFF72EFD56E09A
:1025D000CB48844209D101214805FFF726FD00219F
:1025E0004FF40010FFF721FD49E0C648844208D1AE
:1025F00001214020FFF726FD00214020FFF722FDAA
:102600003DE0C148844208D101218020FFF71AFD36
:1026100000218020FFF716FD31E0BC48844208D13C
:1026200001218015FFF70EFD0021A015FFF70AFD1F
:1026300025E0B748844209D101210804FFF7F5FCE1
:1026400000214FF48030FFF7F0FC18E0B1488442DD
:1026500009D101214804FFF7E8FC00214FF40030C4
:10266000FFF7E3FC0BE0AC48844208D10121880469
:10267000FFF7DBFC00214FF48020FFF7D6FC10BDF4
:1026800000220288954B98420ED09A4B98420BD06C
:10269000B0F1804F08D0924B984205D0914B9842B0
:1026A00002D0914B984204D14FF68F731A404B8859
:1026B0001A438E4B984207D08D4B984204D04FF668
:1026C000FF431A40CB881A4302808B8883850B888E
:1026D0000385824B98420BD0864B984208D08C4B96
:1026E000984205D08B4B984202D08B4B984201D137
:1026F0000B7A038601238382704770B50024002281
:102700000023058C4FF6FE7635400584028C8388C5
:10271000048B4FF68F752C40B51E2C400D882C4332
:10272000751E2A400D892A434D882A436B4DA842C5
:102730000BD0704DA84208D0754DA84205D0754DFC
:10274000A84202D0744DA84213D14FF6F7752A4023
:102750004D892A434FF6FB752A408D882A434FF650
:10276000FF652B404FF6FF552B408D892B43CD89BC
:102770002B4383800483CD888586028470BD70B529
:10278000002400220023058C4FF6EF7635400584A7
:10279000028C8388048B48F6FF752C404FF6FF456A
:1027A0002C400D882D0644EA15444FF6DF752A406B
:1027B0000D892D0542EA15424D882D0542EA154244
:1027C000464DA84202D04B4DA8421BD14FF67F7513
:1027D0002A404D892D0542EA15424FF6BF752A4021
:1027E0008D882D0542EA15424FF6FF352B404FF2FA
:1027F000FF752B408D89AD0443EA1543CD89AD04A7
:1028000043EA154383800483CD880587028470BD25
:1028100070B5002400220023058C4FF6FF6635407A
:102820000584028C8388848B4FF68F752C404FF67D
:10283000FC752C400D882C434FF6FF552A400D891E
:102840002D0642EA15424D882D0642EA1542234DD7
:10285000A84202D0274DA8421BD14FF2FF752A4053
:102860004D892D0642EA15424FF6FF352A408D88E4
:102870002D0642EA15424EF6FF752B404DF6FF75C8
:102880002B408D892D0543EA1543CD892D0543EA5B
:10289000154383808483CD888587028470BD70B59D
:1028A000002200230024058C4EF6FF763540058477
:1028B000038C8488828B48F6FF752A404FF6FF45CB
:1028C0002A400D882D0642EA15424DF6FF752B4031
:1028D0000D892D0743EA15434D881FE0002C014068
:1028E0000004004000080040000C004000100040C0
:1028F0000014004000340140004C014000500140F1
:102900000054014000180040001C0040002000401E
:102910000040014000440140004801402D0743EAC7
:102920001543F94DA84202D0F84DA84206D14BF606
:10293000FF752C408D89AD0544EA1544848082835F
:10294000CD88A0F84050038470BD828B4FF2FF33D6
:102950001A408283828B0B0642EA134282837047BD
:10296000F0B50C461546002200210026078C4EF6D5
:10297000FF7C07EA0C070784828B018C27073E0C3B
:1029800040F6FF473A402F0642EA17421F0742EA45
:102990001742DD4FB8420ED0DC4FB8420BD0B0F139
:1029A000804F08D0DA4FB84205D0DA4FB84202D093
:1029B000D94FB84206D14DF6FF77394046F48057DB
:1029C000394305E047F6FF57394044F4805739430F
:1029D00082830184F0BD828B4FF6F3731A408283A9
:1029E000828B0A4382837047F0B50C46154600225D
:1029F00000210026078C4FF6FF6C07EA0C070784BE
:102A0000828B018C27063E0C4FF60C773A401F054F
:102A100045EA17473A43BC4FB8420ED0BB4FB842C5
:102A20000BD0B0F1804F08D0B94FB84205D0B94FA4
:102A3000B84202D0B84FB84206D14FF6FF573940DE
:102A400046F48077394305E04FF2FF57394044F4AC
:102A50008077394382830184F0BD028B4FF2FF33CC
:102A60001A400283028B0B0642EA1342028370472C
:102A7000F0B50C461546002200210026078C4FF6C3
:102A8000EF7C07EA0C070784028B018C27053E0CBC
:102A900040F6FF473A401F0742EA17422F0642EA34
:102AA0001742994FB8420ED0984FB8420BD0B0F1B0
:102AB000804F08D0964FB84205D0964FB84202D00A
:102AC000954FB84206D14FF6DF77394046F01007F0
:102AD000394305E04FF65F77394044F0100739433A
:102AE00002830184F0BD028B4FF6F3731A40028318
:102AF000028B0A4302837047F0B50C46154600224C
:102B00000021068C4FF6FE773E400684028B018C36
:102B10004FF60C7632401E0545EA164632437A4E91
:102B2000B0420ED0794EB0420BD0B0F1804F08D0F9
:102B3000774EB04205D0774EB04202D0764EB042CA
:102B400006D14FF6FD76314044F00106314305E0F1
:102B50004FF6F576314044F001063143028301849B
:102B6000F0BD70B505460C46674885420ED06748F3
:102B700085420BD0B5F1804F08D06548854205D01D
:102B80006448854202D06448854200D100E000BF1D
:102B9000208850B92389A28861882846FFF7ACFFB6
:102BA000E1882846FFF79FFF25E0208804280AD106
:102BB0002389A28861882846FFF75AFFE1882846C2
:102BC000FFF74BFF17E0208808280AD12389A28845
:102BD00061882846FFF708FFE1882846FFF7FBFEDB
:102BE00009E02389A28861882846FFF7B9FEE188B9
:102BF0002846FFF7AAFE70BD2DE9F04105460C46B8
:102C000000260127608808B9022600E00026A08877
:102C1000012801D1022700E001272088A0B92389DB
:102C2000A28861882846FFF767FFE1882846FFF7FA
:102C30005AFF23893A4631462846FFF719FFE188B3
:102C40002846FFF70AFF13E02389A28861882846F7
:102C5000FFF70EFFE1882846FFF7FFFE23893A467B
:102C600031462846FFF748FFE1882846FFF73BFF3B
:102C7000BDE8F0810A884B881A438B881A43CB88B9
:102C80001A430B891A434B891A438B891A43A0F8BC
:102C9000442070474FF6FF71818000210180C18080
:102CA0004180017270470021018041808180C18094
:102CB000018141818181C181704700210180418072
:102CC000012181800021C1800181704700210180A4
:102CD00041808180C180018141818181704721B122
:102CE000028842F00102028004E002884FF6FE737F
:102CF0001A400280704789B1B0F8442042F4004283
:102D0000A0F8442010E00000002C014000340140F5
:102D10000004004000080040000C0040B0F84420CF
:102D2000C2F30E02A0F84420704710B51AB183898F
:102D30000B43838104E08389CC43A4B22340838185
:102D400010BD8182704741EA0203A0F84830704705
:102D500010B51AB183890B43838104E08389CC4386
:102D6000A4B22340838110BD01894FF6F87211404F
:102D7000018170470A46002101894FF68F7319407F
:102D800011430181704730B504460D46294620465F
:102D9000FFF7F0FF208940F00700208130BD2DE9CA
:102DA000F04104460D4616461F46602D06D13B46AF
:102DB000012231462046FFF75BFE05E03B4601223B
:102DC00031462046FFF798FE29462046FFF7D2FFFE
:102DD000208940F007002081BDE8F08130B50C4625
:102DE00000210189C9B21D0642EA15452543294340
:102DF000018130BD2DE9F04105460E461746984643
:102E0000002443463A4631462846FFF7E7FF2C891F
:102E10004FF6F8710C4044F007044FF68F710C40E8
:102E200044F070042C81BDE8F081F0B504460D46F5
:102E300016461F463B46324629462046FFF7CEFF40
:102E4000208940F480402081F0BD01858282704756
:102E50000A46002101884FF68F7319401143018003
:102E60007047F0B50C4615461E460021002200238F
:102E70000189028B038C4FF6F877394021434FF6D6
:102E8000FC473A4040F201173A434FF6DD773B40AA
:102E9000370545EA17473B43018102830384F0BDB0
:102EA0000A460021018B4FF68F73194011430183AD
:102EB00070470A460021018B48F6FF73194013063C
:102EC00041EA1341018370470A460021818B4FF686
:102ED0008F7319401143818370470A460021818B0B
:102EE00048F6FF731940130641EA13418183704786
:102EF00021B1028842F08002028004E002884FF68D
:102F00007F731A400280704721B1828842F0040228
:102F1000828004E082884FF6FB731A4082807047FB
:102F200021B1828842F00802828004E082884FF654
:102F3000F7731A408280704721B1828842F0010203
:102F4000828004E082884FF6FE731A4082807047C8
:102F50000A460021018B4FF6F77319401143018394
:102F600070470A460021018B4FF2FF731940130688
:102F700041EA1341018370470A460021818B4FF6D5
:102F8000F77319401143818370470A460021818BF2
:102F90004FF2FF731940130641EA134181837047D2
:102FA0000A460021018B4FF6FB7319401143018340
:102FB00070470A460021018B4FF6FF331940130674
:102FC00041EA1341018370470A460021818B4FF685
:102FD000FB7319401143818370470A460021818B9E
:102FE0004FF6FF331940130641EA134181837047BE
:102FF0000A460021018B4FF67F731940114301836C
:1030000070470A460021018BC1F30E01130641EA05
:103010001341018370470A460021818B4FF67F736D
:1030200019401143818370470A460021818BC1F307
:103030000E01130641EA1341818370470A460021BD
:10304000018C4FF6FD7319401143018470470A4605
:103050000021018C4FF6F77319401143018470472A
:103060000A460021018C4FF6DF731940130541EA2F
:103070001341018470470A460021018C4FF67F738B
:103080001940130541EA1341018470470A460021A3
:10309000018C4FF6FF531940130641EA1341018496
:1030A00070470A460021018C4FF2FF731940130646
:1030B00041EA1341018470470A460021018C4DF614
:1030C000FF731940130741EA13410184704730B57B
:1030D000002301248C40A3B2048CDD43ADB22C400C
:1030E0000484048C02FA01F5ADB22C43048430BD93
:1030F00030B5002304248C40A3B2048CDD43ADB270
:103100002C400484048C02FA01F5ADB22C430484F3
:1031100030BD70B503460020002418461830012544
:103120008D40ACB21D8CE643B6B235401D8409B16A
:10313000082909D100EB6100056825F070050560DC
:103140000568154305600CE00D1FADB200EB65008E
:10315000056825F4E04505600568160645EA16454C
:10316000056070BD21B1028842F00202028004E0D5
:1031700002884FF6FD731A400280704721B1028821
:1031800042F00402028004E002884FF6FB731A400A
:103190000280704721B1828842F08002828004E080
:1031A00082884FF67F731A408280704702884FF6FC
:1031B000F7731A40028002880A43028070478288AF
:1031C0004FF68F731A40828082880A43828070474C
:1031D00002894FF6F8731A40028102890A4302817C
:1031E000704702894FF67F731A40028102890A43B1
:1031F000028170478184704781857047818670475E
:103200000187704781877047A0F840107047028897
:103210004FF6FF431A40028002880A43028070473B
:103220000146888E70470146088F70470146888F97
:1032300070470146B1F8400070470146888C7047DE
:103240000146088D704702460020138A0B4201D0C8
:10325000012000E000207047CA430282704730B569
:103260000246002000230024158A05EA01039589FF
:1032700005EA010413B10CB1012000E0002030BDCB
:10328000CA4302827047000001684FF6FE72114087
:1032900001600021016041608160C160874988420E
:1032A00008D186490839496841F00F01834A083A34
:1032B000516088E081491431884208D17F4908393A
:1032C000496841F0F0017D4A083A51607BE07B4952
:1032D0002831884208D179490839496841F4706138
:1032E000764A083A51606EE074493C31884208D110
:1032F00072490839496841F47041704A083A51608E
:1033000061E06E495031884208D16C4908394968FA
:1033100041F47021694A083A516054E067496431C8
:10332000884208D165490839496841F47001634A07
:10333000083A516047E061497831884208D15F49D5
:103340000839496841F070615C4A083A51603AE0D6
:103350005B49884208D1A0F10401096841F00F01DE
:10336000584AC2F804142EE055491431884207D156
:103370005549096841F0F001524AC2F8041422E0AC
:103380004F492831884207D14F49096841F470619B
:103390004C4AC2F8041416E049493C31884207D12E
:1033A0004949096841F47041464AC2F804140AE0E8
:1033B00043495031884206D14349096841F470219C
:1033C000404AC2F80414704710B50022026847F65C
:1033D000F0739A430C6A8B6823430C6923434C694E
:1033E00023438C692343CC6923434C6A23438C6A6F
:1033F00023431A430260CB6843600B6883604B68C9
:10340000C36010BD0021016041608160C160016145
:1034100041618161C161016241628162704721B194
:10342000026842F00102026004E002684FF6FE7397
:103430001A40026070471AB103680B43036002E050
:1034400003688B43036070474160704701464868DA
:1034500080B2704701460020002211F0805F02D048
:103460001A4B1A6801E0174B1A680A4201D0012072
:1034700000E00020704710F0805F02D01249086021
:1034800001E010494860704701460020002211F019
:10349000805F02D00D4B1A6801E00A4B1A680A429D
:1034A00001D0012000E00020704710F0805F02D0C2
:1034B0000549086001E00349486070470800024080
:1034C00008040240000002400404024000040240DC
:1034D0000020474908604749C1F80404464908608C
:1034E00001F1040108604548454908607047002122
:1034F0003F498279DAB33F4AD2F8002403689A43FD
:103500003C4BC3F800241A46D2F8042403689A43BB
:1035100001F104031A60027911440A68036842EA5F
:1035200003020A60334AD2F80824036822EA03023D
:10353000304BC3F808241A46D2F80C24036822EA58
:103540000302304B1A604279102A11D1294AD2F86D
:10355000082403681A43274BC3F808241A46D2F8F4
:103560000C2403681A43234BC3F80C240EE007E035
:103570001F49427911440A6803681A430A6005E04A
:10358000027911440A6803689A430A60704700216F
:10359000016001710C2141710021817170471A494C
:1035A000096841EA0001134AC2F810147047014645
:1035B0000020134A12680A4201D0012000E00020D6
:1035C00070470F4908607047014600200022084BF1
:1035D0001B6803EA0102074BD3F814340B4202D0F4
:1035E0000AB1012000E000207047054908607047DB
:1035F000000401400000014008040140FFFF0F00EB
:10360000140401400C0401401004014010B50446AC
:10361000FA48008810F4004F0ED00020F7490988BE
:10362000C1F30E01F64A50541146F6A000F0F2FA2A
:1036300014B10020F149088010BD70B50446002582
:10364000EE48008810F4004F0BD00020EB490988A9
:10365000C1F30E01EA4A50542146104600F0AAFC7C
:103660000546284670BD2DE9F04104460E46154634
:1036700000270020E14908800120E3490870FF2C61
:1036800007D800BFE14800680028FBD1E0490C8062
:1036900003E02146DFA0FDF7A9F9DEB1D5B10FE0C7
:1036A0000A20FEF716F8D548008810F4004F07D01E
:1036B0003046FFF7C2FF00B106E00020CF49088086
:1036C000681E80B20500EBD100BF05B901270020BC
:1036D000CD4908703846BDE8F0810146302905DB48
:1036E000392903DCA1F13000C0B27047412905DB64
:1036F000462903DCA1F13700C0B2F6E7612905DBFA
:10370000662903DCA1F15700C0B2EEE70020ECE728
:103710000146092903DC01F13000C0B270470A29D3
:1037200005DB0F2903DC01F13700C0B2F6E73020DA
:10373000F4E710B56422B9A1B9A0FFF794FF38B13E
:103740006422B6A1B6A0FFF78EFF08B1012010BD1C
:10375000C822B4A1B5A0FFF786FF08B10220F6E7A2
:10376000C822B5A1B5A0FFF77EFF60B16422ABA16E
:10377000B5A0FFF778FF20B9B548A149B1F80F10FF
:1037800001800320E3E70020E1E770B504460D4621
:103790006422B0A1B0A0FFF766FF08B1012070BDA0
:1037A0004FF4FA729DA1AFA0FFF75DFF08B10220B0
:1037B000F5E7C82299A1AEA0FFF755FF08B1032095
:1037C000EDE74FF4167295A1ABA0FFF74CFF08B1DF
:1037D0000420E4E7C822ABA1ACA0FFF744FF08B97E
:1037E0000520DCE72B462246ABA1B24800F01EFACA
:1037F000C822B1A1AF48FFF736FF08B10620CEE7D7
:103800000020CCE710B504466422AEA1AEA0FFF7BD
:103810002AFF08B1012010BD00227FA12046FFF73A
:1038200022FF08B10220F6E740F2DC52A9A11A20DB
:10383000FFF719FF08B10320EDE70020EBE710B513
:103840000446BCB1642275A1A4A0FFF70CFF08B127
:10385000012010BD642271A1A3A0FFF704FF08B1ED
:103860000220F6E764226DA1A3A0FFF7FCFEC8B119
:103870000320EEE7642269A198A0FFF7F4FE08B1E7
:103880000120E6E7642265A1A0A0FFF7ECFE08B1E5
:103890000220DEE7642261A1A0A0FFF7E4FE08B1E8
:1038A0000320D6E7C8225DA1A2A0FFF7DCFE08B185
:1038B0000420CEE70020CCE730B587B004460D46A3
:1038C00022469FA1684600F0B1F94FF496727DA19F
:1038D0006846FFF7C8FE10B1012007B030BD0022D6
:1038E0004DA12846FFF7BFFE08B10220F5E740F2E0
:1038F000DC5297A11A20FFF7B6FE08B10320ECE7CF
:103900000020EAE72DE9F04705464FF4967243A1FF
:1039100091A0FFF7A8FEF0BB92A1394800F04AFB46
:1039200007460FB1012000E00020A8B33BA13846B4
:1039300000F040FB04460CB1012000E0002058B329
:10394000002020708AA1384600F02EFB044688A192
:10395000002000F029FB04463020287084A10020BC
:1039600000F022FB0446224682A105F1130000F07C
:103970005DF97FA1002000F017FB0446284600F007
:103980002BFB00EB050922467AA1484600F04EF9D0
:1039900077A1002001E01FE02DE000F005FB0446C8
:1039A000284600F019FB00EB0509224672A14846A3
:1039B00000F03CF92078312801D100261BE0642278
:1039C0006FA172A0FFF74FFE20B1642213A172A075
:1039D000FFF749FE01260EE073A20AA1284600F077
:1039E00025F94FF0010802E0FFF7A3FE8046B8F189
:1039F000000FF9D102263046BDE8F0871E080020EE
:103A00005810002025730000200800208400024088
:103A10000444004025730D0A000000004F4B0000D5
:103A200041540000524541445900000041542B4389
:103A300050494E3F00000000302C310041542B43D0
:103A40005245473F0000000041542B4353510000B2
:103A50004A0800203A20310041542B434741545436
:103A60003F00000041542B43495053485554000037
:103A700041542B435354540041542B43494943521E
:103A8000000000004552524F5200000041542B43A9
:103A9000494653520000000041542B4349505354AF
:103AA0004152543D22544350222C222573222C2271
:103AB0002573220010200020434F4E4E45435420D2
:103AC0004F4B00003E00000041542B4349505345EA
:103AD0004E44000053454E44204F4B0041542B436D
:103AE0004D47463D3100000041542B435343533D65
:103AF000225543533222000041542B43534D503D35
:103B000031372C3136372C302C32350041542B4391
:103B10005343533D2247534D2200000041542B4351
:103B2000534D503D31372C3136372C302C32343117
:103B30000000000041542B435343413F000000006C
:103B400041542B434D47533D222573220000000072
:103B50002B434D47533A000041542B43474E5349A2
:103B60004E4600002B43474E53494E463A00000054
:103B70002C0000002C2573002C25732C0000000065
:103B80002B43474E535057523A20310041542B4358
:103B9000474E535057523F0041542B43474E5350CA
:103BA00057523D3100000000302C302C302C3000BA
:103BB00010B508A1094800F0FDF908B1012010BDB9
:103BC00007A1064800F0F6F908B10220F7E7002047
:103BD000F5E700007475726E2D6F6E0058100020AE
:103BE0007475726E2D6F66660000000070470000ED
:103BF0001CB50C46064B7B4469460090204600F0FD
:103C0000A6FC04460020694600F0B4FC20461CBD1A
:103C10007B0900000FB4044910B503AA029800F014
:103C2000C5FC10BC5DF814FB300800200FB41CB5B7
:103C3000084B06AA7B4469460090059800F087FC73
:103C400004460020694600F095FC20461CBC5DF847
:103C500014FB00003D09000070B50446856900684A
:103C60003026C10600D42026C00708D070BDD4E994
:103C7000012130469047206A00F1010020626D1E4C
:103C8000F5D570BD70B5044685690068C00708D1D8
:103C900070BDD4E9012120209047206A00F1010085
:103CA00020626D1EF5D570BD70B505460C46012A23
:103CB00005D02868800600D5EA69002302E00123C8
:103CC00005E05B1C934202D2E05C0028F9D1A869B0
:103CD000E618C01AA861286A184428622846FFF727
:103CE000BBFF04E0D5E9012114F8010B9047B44271
:103CF000F8D32846FFF7C6FF70BD00002DE9F0415C
:103D00008046002610687529414615A512D000F09E
:103D100091F9002803DAC0F1000012A508E0D8F8F4
:103D200000108A0701D510A502E0490704D50FA5A8
:103D3000012601E000F087F9002408F1240704E0DF
:103D400000F040FD30313955641C0028F8D133466D
:103D50002A4621464046BDE8F04100F07DB900000A
:103D6000000000002D0000002B00000020000000DB
:103D7000F0B40F460168090502D5234C7C4402E0EB
:103D8000214C7C440E34002100F124050BE002F0AC
:103D90000F064FEA1212A65D42EA03724FEA1313AE
:103DA0006E5401F1010152EA0306F0D12246046883
:103DB0000023240704D5702F05D009B11132022346
:103DC000F0BC00F049B910320123F9E770B50446A0
:103DD0000D462146106800F036F902462946204675
:103DE000BDE870400023C3E7D21D22F00703D3E9EA
:103DF0000023BDE70368126843F020030360082333
:103E0000C3610023B4E70000AE2D00002DE9F05F90
:103E10004FF0000B054689464FF0010AC0F820B06C
:103E20002846E968884798B3252806D0D5E90121B6
:103E30009047286A401C2862F2E75A4F00267F44C8
:103E40002846E96888472028044608DB312C06D23A
:103E500007EB040010F8200C08B10643F0E7B007A8
:103E600001D526F00406C5F81CB00027C5F818B027
:103E70002A2C0ED05246A4F130010A292ED2BAF1D2
:103E8000000F2BD0924605EB8708C8F818101AE0EF
:103E900084E059F8041B284605EB87029161E96824
:103EA0008847012F04461BD1E869002823DA26F051
:103EB000200620E0D8F8180000EB800004EB40005A
:103EC0003038C8F818002846E9688847A0F1300162
:103ED00004460A2902D2BAF1000FEBD1012F0AD011
:103EE0002E2C08D12846E96888477F1C0446022FFB
:103EF00046F02006BCDBA869002803DA404246F001
:103F00000106A861F00701D026F010066C2C0AD03B
:103F1000682C08D04C2C34D06A2C32D0742C30D081
:103F20007A2C2ED015E0E968274628468847B84203
:103F3000044609D180206C2F00D0C000E9680643F8
:103F400028468847044604E040206C2F00D08000BB
:103F500006431CB3A4F14100192802D8203446F4CA
:103F600000664A46214628462E604E46FCF73EF93A
:103F700090B101280DD0F61D26F0070000F10809C8
:103F80004EE74C2C5846D9D080206A2CD6D0002041
:103F9000D4E706F1040943E7204647E7286ABDE86D
:103FA000F09F0000142D0000014A00F0E7BB000064
:103FB0005008002030B505460B462A4613F8014B41
:103FC00012F8010B08B1A042F8D01CB1002802D0B1
:103FD0006D1CF1E7284630BD10B5431C02E010F817
:103FE000011B71B18107FAD14FF0013202C88C1A5E
:103FF0008C4314EAC211F9D0C01A0A0603D0C01EBD
:1040000010BDC01A10BD0A0401D0801E10BD0902E7
:10401000FCD0401E10BD704770477047704710B508
:1040200000F0DEFB006810BD10B5044600F0D8FBC0
:10403000046010BD09684A0501D540B27047C90542
:10404000FCD500B2704709684A0501D5C0B2704777
:10405000C905FCD580B270472DE9F0470D460446EE
:104060009246994600F124080168880604D5E06963
:1040700021F01001216000E001200027A84201DDAD
:10408000A0EB0507A16907EB050202EB0300A1EB1A
:104090000000A0612068C00602D42046FFF7DCFDC6
:1040A000002608E0D4E901211AF806009047206AAA
:1040B000401C761C20624E45F4DB2068C0060AD501
:1040C0002046FFF7C9FD06E0D4E9012130209047E2
:1040D000206A401C2062381EA7F10107F4DC07E0CB
:1040E000D4E9012118F805009047206A401C20629D
:1040F000281EA5F10105F3DC2046FFF7C3FD21686A
:104100000220090600D40120BDE8F087116802688A
:10411000006A530501D508700BE0D30501D508806E
:1041200007E0130603D5C217C1E9000201E05206F9
:1041300008600120704770472DE9FF4F0C461E466E
:104140004FF0FF3789B0D2E90001DDF858800690C2
:104150008946C1F30A5505B93D46002108464FF08E
:104160000000B9F1000F00F4400005DA00EB800018
:104170004FF4400101EA50004FEA905ABAF1010FA2
:1041800000DDBA46069850EA49002CD044F610509B
:10419000A5F2FF354543CAF1000008902F14B8F18D
:1041A000000F39D07542089A291E00DC524600DA09
:1041B000694203A800F0B4FB0699484600F0E6FC0B
:1041C0008DE80700A0F500501F3800900398002DDF
:1041D00025DD42F21F015246084403A903906846B8
:1041E00000F045FF24E0B8F1010F4FF0000001D1CD
:1041F000F24307E0302101E02154401CB042FBDBD8
:1042000030460022002121540999C1F80880C1E9F3
:1042100000200DB0BDE8F08FBD1B6D1CC3E7A0F5FD
:10422000005052461F3803A90390684600F033FF40
:104230008DE807000004000C03D04FF0FF30410868
:1042400000E01046B8F1000F03D00022009215469E
:104250001FE0751E06D400F0C9FA02F13002625563
:104260006D1EF8D5B3460122084302D000227F1C00
:1042700004E02078302801D100227F1E002A079711
:104280008DD01DE0112D07DA00F0B0FA3032625502
:104290006D1C50EA0102F5D108430FD10021681EC0
:1042A00005E0235C625C6354491C2254401E814239
:1042B000F7DBAB46A81B401E079001E0009848B111
:1042C000002004F80B000998079AC0F80880C0E99C
:1042D000002B9EE711264FF0000860E72DE9F04F14
:1042E00088460446D21D22F0070191B0D1E90001B1
:1042F000CDE90C0101F005F802460D98C10F4FF011
:104300002D0006D121682B208B0702D4202000EA43
:10431000C100032A834601D0072A05DB0346414634
:10432000204600F0A9FA0AE12068800601D5E76975
:1043300000E006271120B8F1650F06D0B8F1660F2E
:1043400011D0B8F1670F67D128E00023112F009337
:1043500000DA781C03460CAA01A909A8FFF7ECFEB5
:1043600000267D1C3FE001234FF000490CAA01A963
:1043700009A800933B46FFF7DFFEDDE90A5000265F
:1043800020B9099907F1010001EB0005781B02D45F
:104390007D1CC0F1FF36A5EB070A3DE0012F00DAD6
:1043A00001270023112F009300DC384603460CAA96
:1043B00001A909A8FFF7C0FE20683D4600260007B6
:1043C0000BD40A98A84200DA054601A8012D04DDA5
:1043D000411911F8011C302909D00998B84202DAB4
:1043E00010F1040F05DA4FF0010A099813E06D1E71
:1043F000ECE7002802DC2D1A064405E0401CA84228
:1044000002DD099D05F101050998A0EB060000F108
:10441000010A4FF0004081462068000703D4AA45F6
:1044200001DB4FF0FF3A0020B9F1004F0DF13F07DB
:104430008DF83F0024D04FF002082B20B9F1000F77
:1044400000900BDA2D20C9F10009009006E04846E3
:1044500000F0B8F93031814607F8011DB8F10001CC
:10446000A8F10108F3DCB9F1000FF0D1009807F8CA
:10447000010D21684520090500D4652007F8010DCC
:104480000EA8A0EB070000F107085FEA0B0000D0C0
:10449000012000EB050101EBEA7101EB0800A169C5
:1044A000A1EB0000A0F10100A0612068C00602D4C9
:1044B0002046FFF7D1FB5FEA0B0006D0D4E90121CB
:1044C0009047206A00F1010020622068C00621D5D3
:1044D0002046FFF7C1FB1DE0002E05DB0A98B04225
:1044E00002DD01A8805D00E03020D4E90121904781
:1044F000206A761C401CBAF1010A20620AD100F041
:1045000069F9C0680168405CD4E901219047206ADC
:10451000401C2062281EA5F10105DDDC07E0D4E97E
:10452000012117F8010B9047206A401C2062B8F166
:104530000001A8F10108F2DC2046FFF7A3FB0220EE
:1045400011B067E601694A1C02610878704700B53E
:104550008FB0CDE901310021059105497944CDE9BC
:10456000031011466846FFF751FC0FB000BD000074
:10457000E5FFFFFF0A6802F8010B0A60704710B5FB
:10458000436913B1AFF3008001E0FFF78DFB012019
:1045900010BD126800F124010A7000224A70012245
:1045A000EDE711684FF0FF32E9E70000074B70B507
:1045B0000C467B44FFF7CBFF0546204600F026FA69
:1045C00010B14FF0FF3070BD284670BD85D1FFFFA0
:1045D0002DE9FF5F04468A461546DFF8AC80F844B3
:1045E0000027D8E900103E46CDE9001011E03AF866
:1045F00016106A4602A800F00DFA411C07D0216887
:10460000890603D5E269391891420ED8074406F1AC
:1046100001062068800602D5E069B84205DDAE4299
:10462000E5DB3AF816000028E1D1A069C01BA061C3
:104630002046FFF711FBD8E90010CDE9001000205B
:1046400016E03AF818106A4602A800F0E3F981462D
:10465000401C0BD000250DF1080B05E0D4E9012129
:104660001BF8050090476D1C4D45F7D308F101007C
:10467000B0428046E5DB206A384420622046FFF7DE
:1046800001FBBDE8FF9F0000862500002DE9F041F9
:104690008046D21D22F007020026D2E90002F52949
:1046A00014A512D0002A06DA0023D0EB030063EB36
:1046B000020211A508E0D8F800108B0701D50FA55C
:1046C00002E0490701D50EA501261146002408F194
:1046D000240704E000F08AF830323A55641C50EAAE
:1046E0000102F7D133462A4621464046BDE8F04153
:1046F000FFF7B2BC000000002D0000002B000000FE
:104700002000000030B4002100F124040CE002F08D
:10471000070505F130054FEAD20242EA43726554BB
:1047200001F101014FEAD30352EA0305EFD1046816
:10473000002310A2250708D504F020040C4304D060
:10474000C46901230CA2641EC46130BCFFF784BCA1
:1047500010B5044621461068FFF775FC0246204656
:10476000BDE810400023CDE7D21D22F00701D1E9BA
:104770000023C7E700000000300000002DE9F041F1
:1047800015460E46040003D128680DA400B1044666
:10479000204600F06FF90444207870B12746314676
:1047A000204600F057F90444207810B1002004F8A6
:1047B000010B38462C60BDE8F0810027F9E70000C6
:1047C000000000004FF00A01B0FBF1F202FB110102
:1047D0001046704701487047704700BF64200020B2
:1047E00001487047704700BF4420002030B5B0F149
:1047F0000A024FEA900E71F100034EEA817EB0EB9F
:104800000E0061EB91014FEA101E4EEA017E10EBA3
:104810000E0041EB11114FEA102E4EEA016E10EB23
:104820000E0041EB11214FEA104E4EEA014E10EB03
:104830000E0041EB1141401841F100014FEAD00058
:1048400040EA41704FEAD10110EB80054FEA810444
:1048500044EA907444EB01046D1944EB0404521BC8
:10486000A3414FF0000348BF0A3200D530BD401CC1
:1048700041F1000130BD00002DE9F04104461F4622
:1048800003260168072A01F4006003DB15A520B99F
:1048900015A502E015A500B915A521F010002060AE
:1048A000A069C01EA0610FB1401EA0612046FFF7A5
:1048B000D3F94FB1D4E9012138469047206A401C12
:1048C0002062C01C206206E0206AFAE7D4E90121D8
:1048D00015F8010B9047761EF8D22046FFF7D2F963
:1048E000BDE8F0814E414E006E616E00494E4600BB
:1048F000696E660010B5436913B1AFF3008001E043
:10490000FFF766FE012010BD126800F124018284C9
:104910000022C2840122EDE711684FF0FF32E9E77F
:104920002DE9F047814616468AB037487844D0E9E9
:10493000002380680092CDE90130334878440C3878
:10494000D0E9022300690392CDE9043041F69B339C
:104950004FF0370001EB0302194492FBF0F591FB95
:10496000F0F2A5F1800500FB12141B3C02D5644255
:10497000012000E00020DFF890A080460027FA44E4
:10498000AAF1CE0A0DE0E00709D03246684607EBEF
:1049900047010AEB810100F07EFB8DE807006410FF
:1049A0007F1C002CEFD1184F7F44BC3F17E0E80775
:1049B00013D007EB04100DF1180A90E80E00AAE8D6
:1049C0000E00C068F04201D198190890324606A93D
:1049D00003A800F060FB03AB07C36D10641C002D3F
:1049E000E5D132466946B8F1000F03A802D000F0C5
:1049F0003EFB01E000F04FFBC9E90001C9F80820C7
:104A00000AB0BDE8F0870000F4220000C06800F0A2
:104A10008000704770B505460C46164600F062F8F7
:104A2000036893F80101012806D0FF2C0FD8185D08
:104A300068B101202C7070BDD3F8070132462146C1
:104A400003442846BDE8704003F2071318474FF0AF
:104A5000FF3070BD30B503461D781DB10A4603E036
:104A6000AC4201D1181A30BD12F8014B002CF7D11D
:104A70005B1CF1E730B503461D783DB10A4612F8DC
:104A8000014B1CB1AC42FAD15B1CF5E7181A30BDE2
:104A900000487047442000207546FFF7F9FFAE46F6
:104AA00005006946534620F00700854618B020B53A
:104AB000FCF700FFBDE820404FF000064FF0000774
:104AC0004FF000084FF0000B21F00701AC46ACE8B6
:104AD000C009ACE8C009ACE8C009ACE8C0098D4623
:104AE0007047000010B5FFF775FE001D10BD00BF38
:104AF000BD0D00000446AFF300802046FBF7DBFB52
:104B00004FF0013C50F8042B51F8043B9A4221D15C
:104B1000A2EB0C03934313EACC1317D150F8042BE8
:104B200051F8043B9A4215D1A2EB0C03934313EACC
:104B3000CC130BD150F8042B51F8043B9A4209D105
:104B4000A2EB0C03934313EACC13DBD04FF000002D
:104B5000704700BFD01A01BAB1FA81F101F0180113
:104B600022FA01F0CB40C1F12001DBB2C0B2C01A81
:104B70002CFA01F3D11A914311EAC311E6D170471F
:104B800001487047704700BF482000205FEA400C92
:104B900008BF91F0000F4FEA8C234FEAC12243EA8D
:104BA00051514FEA1C5018BF00F5F0404FEA300059
:104BB00018BF41F000415FEA6C5C00F02980BCF155
:104BC000FF3F08BF40F080407047130C06BF12043F
:104BD0004FF0100C4FF0000C130E04BF12020CF13A
:104BE000080C130F04BF12010CF1040C930F04BF47
:104BF00092000CF1020CD30F04BF52000CF1010C17
:104C000011464FF00002A0F11F00A0EB0C0070470E
:104C100011F0004F08BF704731F000413FF4D5AFAD
:104C20000B0C06BF09044FF0100C4FF0000C0B0EDC
:104C300004BF09020CF1080C0B0F04BF09010CF1B1
:104C4000040C8B0F04BF89000CF1020CCB0F04BFC6
:104C500049000CF1010CCCF12003A0EB0C0022FA6E
:104C600003F302FA0CF241EA030100F1010070477C
:104C700020F07F4C80EA030023F07F47ACEB070372
:104C800003F57C5300F0004003F1FF032DE9804958
:104C90004FEA154B09B44FEA144325EA0B4E24EAB8
:104CA00003480FF2042606EB132749083E785FEA13
:104CB000320203FB0667C7F5000707FB06F64FEA5B
:104CC00054374FEAD64606F1020607FB066CCCF1D4
:104CD000005C4FEA1C472CEA074C07FB06F40CFB70
:104CE00006F504EB15464FEA961634BF00204FF048
:104CF00000404FEAD13706FB07FC4FEA1C4C0CFB87
:104D00000BF7D21B03FB0CF761EB07010CFB0EF753
:104D1000B0EB074072EB17420CFB08F734BFA2EB75
:104D20000742B2EB074261EB17414FEA0C444FEAEE
:104D3000910706FB07FC4FEA1C4C0CFB0BF7B0EB92
:104D4000C74072EB573203FB0CF734BFA2EBC742EC
:104D5000B2EBC74261EB57310CFB0EF7B0EBC7006B
:104D600072EB57720CFB08F734BFA2EBC702B2EB31
:104D7000C70261EB5771039F4FEA816141EA9211CB
:104D800004EBCC044FEAD1374FEA826206FB07FC02
:104D900042EA90124FEA80604FEA1C4C0CFB0BF782
:104DA000D21B03FB0CF761EB07010CFB0EF7B0EB1A
:104DB000074072EB17420CFB08F734BFA2EB074227
:104DC000B2EB074261EB17414FEA8C554FEA91076E
:104DD00004EB9C2406FB07FC4FEA1C4C0CFB0BF776
:104DE000B0EBC74072EB573203FB0CF734BFA2EBBA
:104DF000C742B2EBC74261EB57310CFB0EF7B0EB89
:104E0000C70072EB57720CFB08F734BFA2EBC70266
:104E1000B2EBC70261EB577115EB4C254FEA81618C
:104E200041EA92114FEA82624FEAD13742EA901288
:104E300006FB07FC44F100044FEA80604FEA1C4C7B
:104E40000CFB0BF7D21B03FB0CF761EB07010CFB10
:104E50000EF7B0EB074072EB17420CFB08F734BFBC
:104E6000A2EB0742B2EB074261EB174115EB1C15B1
:104E70004FEA813141EA92414FEA823242EA90425E
:104E80004FEA80304FEA0C7644F1000448EA0343CD
:104E90004EEA0B484FF0000EB2EB080C71EB030723
:104EA00024BF624639464EEB0E0E4FF0000B001841
:104EB000524149414BEB0B0BB2EB080C71EB030772
:104EC0007BF1000B24BF624639464EEB0E0E4FF0CD
:104ED000000B0018524149414BEB0B0BB2EB080C95
:104EE00071EB03077BF1000B24BF624639464EEBA2
:104EF0000E0E51EA020718BF46F0010616EB0E76B9
:104F000055F1000254F1000103D5BDE88901BDE867
:104F10000088BDE88901BDE80048B619524141EB5F
:104F20000101A3F10103704780807F7E7D7C7B7A45
:104F30007978777676757473727171706F6E6E6D45
:104F40006C6C6B6A6A6968686766666564646363EB
:104F500062616160605F5F5E5E5D5D5C5C5B5B5A71
:104F60005A595958585757565655555554545353DE
:104F700052525251515050504F4F4F4E4E4D4D4D39
:104F80004C4C4C4B4B4B4A4A4A4949494848484784
:104F900047474746464645454544444444434343C2
:104FA0004342424242414141002B26D4770021D066
:104FB0001CB54FEA370703B44FF010004FF0100153
:104FC0004FF000000FBCBDE810400BF1010BBBF12E
:104FD000010F08BF5FEA170722BF12F1010211F1AA
:104FE00001014FF0004143F1000300F0004043EAAB
:104FF00000007047F9D35708DAE746EA064613F18E
:10500000400F4FEA16461FDD13F1200FDFBF164396
:105010000A46002120335B42C8D0C3F1200746EA8C
:10502000064602FA07F74FEA164646EA0706C3F1B4
:10503000200722FA03F201FA07F721FA03F14FF0F1
:10504000000342EA0702B1E746EA020646EA0646DC
:105050004FEA164646EA0106BCBF46EA0646360C4B
:105060004FF000034FF000024FF000019EE72DE9E2
:10507000C048934630B491E8380007C831EA400C84
:1050800048BF34EA430C03D5FFF7F2FDFFF78CFF6E
:10509000F0BCBDE800882DE9C048934630B491E8E3
:1050A000380007C810F0804F08BF13F0804F03D1BD
:1050B00000F005F8FFF778FFF0BCBDE8008820F0AD
:1050C0007F4780EA030023F07F4C07EB0C03A3F536
:1050D0007C5300F00040A3F1FE0392F0000F00F0BB
:1050E000B38095F0000F00F077802DE901494FEA79
:1050F00011404FEA144621EA004800FB06FC24EA6E
:10510000064708FB06F607FB08F800FB07F718EB55
:1051100006484CEB164C4FEA124B18EB07484FEA87
:1051200015464CEB174022EA0B4E0BFB06FC25EA1A
:1051300006470EFB06F607FB0EFE0BFB07F71EEB02
:10514000064E4CEB164C4FF000061EEB074E4CEB98
:10515000174B18EB0B0840F1000018EB0E0B58EB47
:10516000000840F100008F1A4FF000013CBFC94316
:10517000661B14BFB5EB040C00213CBFC943F61BF2
:105180004FEA17444EEA8E0E27EA04454FEA1C47C1
:1051900004FB07622CEA074C05FB07F70CFB05F63E
:1051A00004FB0CFC16EB074642EB174216EB0C46D1
:1051B00042EB1C421BEB060658EB0202414146EA59
:1051C0009E0601D5BDE80189B619524141EB0101A6
:1051D000A3F10103BDE801894FEA14454FEA1147E5
:1051E00024EA054621EA074C05FB07F406FB07F70E
:1051F0000CFB06F105FB0CFC11EB074144EB1744DB
:105200004FEA124711EB0C4144EB1C4422EA074CD5
:1052100005FB07F206FB07F70CFB06F605FB0CFC8B
:1052200016EB074642EB174216EB0C4642EB1C45C9
:105230006A1854F1000148BF7047B619524141EB5A
:105240000101A3F10103704795F0000F37D04FEA39
:1052500011424FEA144721EA024624EA074C02FBB6
:1052600007F106FB07F70CFB06F402FB0CFC14EB42
:10527000074441EB17414FEA154714EB0C4441EB4F
:105280001C4125EA074C02FB07F506FB07F70CFB60
:1052900006F602FB0CFC16EB074645EB174516EB32
:1052A0000C4645EB1C42121951F1000148BF7047F2
:1052B000B619524141EB0101A3F1010370474FEAD6
:1052C00014454FEA114724EA054621EA074C05FB3D
:1052D00007F106FB07F70CFB06F24FF0000605FB93
:1052E0000CFC12EB074241EB174112EB0C4251EB65
:1052F0001C4148BF7047921841EB0101A3F1010323
:105300007047490050EAC12018BF04204A0D18BF59
:1053100040F0010040F2FF72B2EB515F08BF40F075
:105320000200012808BF052070472DE9F0414F1EFB
:1053300000EBC7010446D1E9000115461E4637F0CF
:1053400006020DD02A46334600F05EFD7F1E04EBB8
:10535000C703D3E9002300F0F1FA37F00602F1D1D8
:10536000022F25D0042F13D0062F18BFBDE8F081DF
:105370002A46334600F048FDD4E90A2300F0DEFA5D
:105380002A46334600F040FDD4E9082300F0D6FA5F
:105390002A46334600F038FDD4E9062300F0CEFA61
:1053A0002A46334600F030FDD4E9042300F0C6FA63
:1053B0002A46334600F028FDD4E9022300F0BEFA65
:1053C0002A46334600F020FDD4E90023BDE8F04131
:1053D00000F0B4BA2DE9F04DCB4B002492B09942C5
:1053E00005DA21F000429A4201D806D128B112B064
:1053F0000122BDE8F04D01F052BBB1F5801F20DA6B
:1054000002430DD0002917DA0120FEF70DFE12B07D
:105410000022BDE8F04D13461046114600F048BB8F
:105420000220FEF701FE12B00022BDE8F04D134647
:105430001046B64900F03CBB6FF03504362201F04F
:105440002EFB04EB2152C1F31308B149A2F2FF3342
:10545000414401F4801282F07F6103EB225281F01B
:105460004051009241EA08010022AA4B00F0BCFE24
:10547000044608F10200A84EC0F313000D467E4416
:10548000032867D2D6E90023204600F069FC1ED12C
:105490000098002802BFD6E9000112B0BDE8F08DE7
:1054A00000F09AFC04460D469C4A9D4B00F0ACFC73
:1054B00006460F469B4A9C4B2046294600F0A4FC1A
:1054C00012B032463B46BDE8F04D00F037BA4FF01F
:1054D0005532964B2046294600F096FC0022944B0C
:1054E00000F090FD07460E4622462B4620462946F0
:1054F00000F08AFC3A46334600F086FC06460098E7
:105500000F46F0B100F068FC80468A46834A844B1F
:1055100000F07AFC32463B4600F074FD22462B46F2
:1055200000F062FE04460D467E4A7F4B40465146DF
:1055300000F06AFC12B022462B46BDE8F04D00F0A8
:1055400053BE0B4612B0324620462946BDE8F04D08
:1055500000F04ABE00224FF08043204600F0EEF9F2
:1055600002460B462046294600F0A2FA06460F46A0
:10557000009800F031FCCDE9040132463B4630464C
:10558000394600F041FC0C906A480A9108EB000291
:1055900001920C9A0B46104600F036FC82460246F9
:1055A00065488B46C8F151080B4608F5D7280321FA
:1055B0007844FFF7BAFE52465B4600F025FC0E9099
:1055C0005E48089152465B4604217844FFF7ADFEE1
:1055D0000A9B0C9A00F018FC019A089B42EA080802
:1055E0000E9A00F0ABF983460991B8F1000F4EDD39
:1055F0004FF0FF322046294601F051FA22462B4651
:1056000000F002FC804600988A4660B3DDE90401A0
:10561000424A434B00F0F8FB0B9100905A4640463B
:105620005146099B00F08AF932463B4600F0ECFBFC
:105630000B9B009A00F082F94246534600F0E2FCD0
:1056400022462B4600F0D0FD05460C46DDE904015C
:10565000344A354B00F0D8FB12B02A462346BDE849
:10566000F04D00F0C1BD5A464046099B00F066F976
:1056700032463B4600F0C8FB4246534600F0C2FCAF
:1056800012B022462B46BDE8F04D00F0BBBC00989E
:1056900040B3DDE90401214A214B00F0B5FB82460D
:1056A00088465A4620462946099B00F09DFD324611
:1056B0003B4600F0A9FB5246434600F095FD2246CA
:1056C0002B4600F091FD04460D46DDE90401154A24
:1056D000154B00F099FB12B022462B46BDE8F04D69
:1056E00000F082BD0B465A462046294600F07CFD5C
:1056F00032463B4600F088FB12B022462B46BDE8FE
:10570000F04D00F07FBC00000000F07F0000F0BF13
:10571000645F09000000F03FBE170000763C793559
:10572000EF39EA3D0000E0FE422EE63F5555D53FF9
:105730000000E03F86EBF9FFBC150000BA15000041
:105740002DE9F041044633480025814205DA21F075
:105750000042824201D806D12CB12046BDE8F0417A
:10576000012201F09CB9B1F5801F21DA52EA040050
:105770000CD0002915DA0120FEF756FCBDE8F041F7
:10578000002213461046114600F092B90220FEF79F
:105790004BFCBDE8F0410022134610461E4900F0C4
:1057A00087B96FF035053622204601F078F90446B6
:1057B00005EB2150A0F2FF32D00F40F2FF331B1A4D
:1057C0000D4663F31F55104400F006FB07460E46D6
:1057D00029462046FFF7FEFD104A114B00F014FB4E
:1057E00005460C460F4A104B3846314600F00CFB7C
:1057F0002A46234600F0A2F805460C460B4A0C4BFD
:105800003846314600F000FB2A462346BDE8F04109
:1058100000F094B80000F07F0000F0BF0EE5261500
:105820007BCBDB3F362BF111F3FE593D00609F50DF
:105830001344D33F2DE9F04106460F4600F0EEFB3E
:1058400004000D4618BF0120284320F00040C0F19D
:105850007F6010F1E0400ED5002E14BF0120002023
:10586000384320F00040C0F17F6010F1E0405CBFA1
:105870000120FEF7D9FB20462946BDE8F081000053
:1058800010B500290AD00878002807D005487844C8
:10589000FFF736F9002801D0002010BD02487844F7
:1058A00010BD0000DA130000D213000010B500296B
:1058B0000AD00878002807D005487844FFF720F977
:1058C000002801D0002010BD0248784410BD00001F
:1058D000CA130000C213000021F00042A2F160527E
:1058E000B2F5801F01F0004328BFD2F17F6C0BD9C5
:1058F0005FEA001C43EAC20242EB507018BF7047D7
:1059000028BF20F001007047B2F5801FBCBF1846C9
:1059100070474FEA410C1CF5001F02D2084600F008
:10592000DFBF70B500F01AFB00000089FFF7F6BF7B
:105930004FF00040A0F580007047000010B591EADC
:10594000030F48BF83F0004300F15684841A71EBC3
:10595000030E05D2121943EB0E03001B61EB0E017F
:10596000DFF820C14FEA1154A4EB135E1CEA430F89
:1059700018BF9CEA445F71D023EA0C03DEF1200CCF
:1059800021EA045143F4801332D322FA0EFC10EBC7
:105990000C0023FA0EFC41EB0C01CEF1200C03FAB3
:1059A0000CFC10EB0C0051F10001B1F5801FCEF1A1
:1059B000200C32D201EB0451BDE8104012FA0CF277
:1059C00058BF7047401C38BF5FEA420218BF70479B
:1059D000002814BF20F0010041F100014FEA41030B
:1059E00013F5001F38BF7047A1F1C04100F004BBA0
:1059F000012A43EB0302AEF1200EDEF11F0C32BF91
:105A00004FF0000C23FA0EF310EB030041EB0451AE
:105A1000B4EB115FD0D0A1EB045101F5801149081E
:105A200001EB0451BDE810405FEA30000CD350F1A7
:105A3000000038BF12FA0CFC06D1C9E7401C38BF81
:105A40005FEA4202CAD1C3E74FEA410313F5001FE0
:105A500038BF7047A1F1C04100F0CEBA9CEA445F64
:105A600008D0BDE8104011EA5C0F04BF01F000410E
:105A700000207047BDE8104070B500F06FFA00BF1D
:105A800064FBBE3E0000E0FF02494FF0000000F062
:105A9000D4BF00BF0000F87F491058BFC1F140419A
:105AA0005B1058BFC3F140438B42EFF30080704757
:105AB0002DE9C04130B4DFF8A0C23CEA111418BF90
:105AC0003CEA131400F0EC8081EA03051CEA11148F
:105AD00044EAD57418BF1CEA131500F0C780A4EB84
