:020000040800F2
:10000000880C0020094D0008ED030008EF030008EC
:10001000F3030008F7030008FB03000800000000DA
:10002000000000000000000000000000FF030008C6
:100030000104000800000000030400080504000893
:10004000234D0008234D0008234D0008234D0008D0
:10005000234D0008234D0008273C0008234D0008CD
:10006000234D0008234D0008234D0008234D0008B0
:10007000234D0008234D0008234D0008234D0008A0
:10008000234D0008234D0008234D0008234D000890
:10009000234D0008234D0008234D000807040008E5
:1000A000234D0008234D0008234D0008234D000870
:1000B000033B0008234D0008714B0008234D000846
:1000C000234D0008234D0008234D0008234D000850
:1000D000234D0008234D0008E14B0008714C000837
:1000E000234D0008234D0008234D0008234D000830
:1000F000234D0008234D0008234D0008234D000820
:10010000234D0008234D0008234D0008234D00080F
:10011000234D0008234D0008234D0008234D0008FF
:10012000234D0008234D0008234D0008234D0008EF
:1001300000F002F800F051F80AA090E8000C8244A8
:100140008344AAF10107DA4501D100F046F8AFF285
:10015000090EBAE80F0013F0010F18BFFB1A43F0A5
:100160000103184730710000507100000A4410F874
:10017000014B14F00F0508BF10F8015B240908BFFC
:1001800010F8014B6D1E05D010F8013B6D1E01F8F3
:10019000013BF9D1641E03D0641E01F8015BFBD161
:1001A0009142E4D37047000000230024002500267C
:1001B000103A28BF78C1FBD8520728BF30C148BFCA
:1001C0000B607047782906F0AF86002070471FB596
:1001D00007F03CF81FBD10B510BD07F001F811463F
:1001E000FFF7F5FF00F033F807F01FF803B4FFF74F
:1001F000F2FF03BC04F0BEFB0EB50021009101919B
:10020000029100206449096800916449D1F8EC1713
:10021000019163490968029100994FEA5101019ADD
:1002200001EB9201029A01EBD2004FF007015D4A07
:1002300011704FF02401517090704FEA1021D1706D
:100240004FEA104111714FEA106151710EBD10B5A6
:10025000012404F027FB04F087FB03F00BFC03F000
:100260001EFC4FF4165004F0CCFB4FF4166004F063
:100270002AFC03F0E1FC03F0F7FC04F091FA03F030
:10028000B3F900F01CFAFFF7B7FF1021464804F05D
:10029000E2FE03F0F5F803F0D6F8002043490870B9
:1002A000434908604349087043490870434908605E
:1002B0004349087043490870434908700120434985
:1002C000087064E001F0FCFA02F023FE4048008868
:1002D000502807DD01203F4908703F490870002081
:1002E0003B49088000F058FC00F074FD3948007864
:1002F00020B93748008800F02EFE06E03648007826
:1003000018B93348008801F013F831480088401CC0
:100310002F49088031480078012804D100202F4956
:10032000087001F098FA2E48007801282FD12D4846
:10033000007801282BD12C480068B0F57A7F13D9BA
:1003400004F034FAB0F57A7F0BD904F02FFA26497D
:100350000968884202D204F055F918E004F058F90F
:1003600015E004F04FF912E004F020FAB0F57A7FBE
:100370000BD204F01BFA1C490968884202D204F02F
:1003800047F904E004F03EF901E004F041F9002CE3
:1003900098D1002010BD0000E8F7FF1F00F0FF1FFC
:1003A000F0F7FF1F12000020000801403C00002071
:1003B000300000203B000020390000202C000020ED
:1003C0003A000020380000203D0000203F000020BF
:1003D0004E0000204B0000204C0000200A000020AE
:1003E00008000020020000200C000020704700BF21
:1003F000FEE700BFFEE700BFFEE700BFFEE7704775
:1004000070477047704710B5402006F015FB58B193
:10041000402006F022FB04F0D6F8012804D103485E
:100420000068401C0149086010BD00000400002065
:1004300000210020674A126842F48032654B1A603E
:1004400000BF644A126802F40030491C10B9B1F5CB
:10045000A06FF6D15F4A126812F4003F01D001206C
:1004600000E00020012842D15B4A126842F01002ED
:10047000594B1A601A46126822F003021A601A4693
:10048000126842F002021A60524A5268514B5A6096
:100490001A4652685A601A46526842F480625A609C
:1004A0001A46526822F47C125A601A46526842F484
:1004B000E8125A601A46126842F080721A6000BF51
:1004C000444A126812F0007FFAD0424A526822F081
:1004D0000302404B5A601A46526842F002025A60C8
:1004E00000BF3C4A526802F00C02082AF9D170475A
:1004F00010B5FFF79DFF10BD10B53648006840F0FD
:1005000001003449086008464068344908403149D0
:10051000486008460068324908402E49086008468D
:10052000006820F4802008600846406820F4FE003F
:1005300048604FF41F008860FFF7DAFF4FF000605B
:100540002849086010BD10B5002100200022214B71
:100550005B6803F00C0121B1042906D0082928D1D9
:1005600007E0214B214C236027E01F4B1F4C2360E9
:1005700023E0184B5B6803F47010164B5B6803F4C0
:100580008032022303EB904022B9194B4343174CAE
:1005900023600DE00F4B5B6813F4003F04D0144B55
:1005A0004343124C236003E00F4B43430F4C236043
:1005B00003E00D4B0D4C236000BF00BF054B5B6893
:1005C000C3F303130B4CE15C084B1B68CB40074C97
:1005D000236010BD00100240002002400000FFF820
:1005E000FFFFF6FE08ED00E000127A001800002080
:1005F00000093D001C00002070B50546002403E002
:10060000A0B203F016FE641C0A2CF9DB284603F0A6
:1006100051FE70BD70B50546002403E0A0B203F0A2
:1006200049FE641C0A2CF9DB284603F002FE70BD6B
:1006300070B50546002403E0A0B203F0B5FE641CCB
:10064000082CF9DB284603F076FE70BD70B5054630
:10065000002403E0A0B203F06EFE641C082CF9DB5A
:10066000284603F0A1FE70BD10B5002404E020462A
:10067000FFF7C2FF601C84B20A2CF8DB002404E000
:100680002046FFF7E3FF601C84B2082CF8DB10BDA6
:1006900010B5002404E0204603F00CFE601C84B278
:1006A0000A2CF8DB002404E0204603F044FE601C22
:1006B00084B2082CF8DB022004F02BF910BD10B531
:1006C000FFF7E6FF10BD70B50446642C02DDFFF7AE
:1006D000F6FF70BD0A2094FBF0F100FB114085B2DB
:1006E0000A2094FBF0F086B2FFF7E9FF2846FFF7F7
:1006F00091FF3046FFF7AAFF00BFEAE770B5044656
:10070000FF26642C03DDFFF7DAFFFF2070BD0A200F
:1007100094FBF0F085B2284603F07FFE0646304693
:10072000F4E770B50446FF26642C03DDFFF7C7FF2E
:10073000FF2070BD0A2094FBF0F085B2284603F03C
:10074000DDFE06463046F4E770B504460A2094FB09
:10075000F0F100FB114085B2FFF7B1FF2846FFF72B
:1007600059FF012004F0D5F82046FFF7DAFF18B949
:10077000FFF7A5FF012070BDFFF7A1FF0020FAE7FA
:1007800070B504460A2094FBF0F085B20A2094FB71
:10079000F0F100FB114086B2FFF791FF2846FFF70A
:1007A00055FF3046FFF736FF012004F0B2F820462F
:1007B000FFF7A4FF012803D1FFF781FF012070BDDF
:1007C000FFF77DFF0020FAE7F0B599B00746002457
:1007D00000260020FF4908703846FFF7B5FF0128C2
:1007E0005DD0FC222146601C84B20DF80120FA483D
:1007F00002782046611C8CB20DF80020F748027880
:100800002046611C8CB20DF80020F5480278204685
:10081000611C8CB20DF80020F24802782046611C61
:100820008CB20DF8002040222046611C8CB20DF8DD
:1008300000200621684600F083FF0646F0B22146FC
:10084000621C94B20DF80100C6F307202146621C19
:1008500094B20DF8010088222046611C8CB20DF87C
:1008600000201021E04804F0F8FB002505E01DF809
:10087000050004F0A3F9681C85B2A542F7DB10213E
:10088000D94804F0E8FB0020D2490870D749087025
:10089000FFF715FF0020D649087019B0F0BD3846A3
:1008A000FFF76EFF01285CD0FC222046611C8CB251
:1008B0000DF80020C84802782046611C8CB20DF863
:1008C0000020C64802782046611C8CB20DF800203A
:1008D000C34802782046611C8CB20DF80020C14844
:1008E00002782046611C8CB20DF800203022204690
:1008F000611C8CB20DF800200621684600F020FF34
:100900000646F0B22146621C94B20DF80100C6F30F
:1009100007202146621C94B20DF80100882220466F
:10092000611C8CB20DF800201021AF4804F095FB3B
:10093000002505E01DF8050004F040F9681C85B2AB
:10094000A542F7DB1021A84804F085FB0020A1494F
:100950000870A6490870FFF7B2FE0020A44908708D
:100960009BE7A4480078012802D13846FFF7ABFE88
:1009700001209849087000209F49087001209F4974
:1009800008700020994908709D49086001209D4920
:10099000087000209C4908709C4908609C480780AA
:1009A00001209349087000BF77E7F0B599B007467A
:1009B000002400260020874908703846FFF7C4FE4F
:1009C00001285DD0FC222046611C8CB20DF800206D
:1009D000814802782046611C8CB20DF800207F48C7
:1009E00002782046611C8CB20DF800207C48027809
:1009F0002046611C8CB20DF800207A48027820460F
:100A0000611C8CB20DF8002040222046611C8CB283
:100A10000DF800200621684600F092FE0646F0B26E
:100A20002146621C94B20DF80100C6F3072021464E
:100A3000621C94B20DF8010088222046611C8CB221
:100A40000DF800201021684804F007FB002505E0A0
:100A50001DF8050004F0B2F8681C85B2A542F7DB6A
:100A60001021614804F0F7FA00205A4908705F49E4
:100A70000870FFF724FE00205D49087019B0F0BD32
:100A80003846FFF77DFE012866D1002051490870E5
:100A90005E4908605C4908705A4908705849086006
:100AA0005249087055490870FFF709FEFC2220469C
:100AB000611C8CB20DF80020474802782046611C6A
:100AC0008CB20DF80020454802782046611C8CB29B
:100AD0000DF80020424802782046611C8CB20DF8C7
:100AE0000020404802782046611C8CB20DF800209E
:100AF00030222046611C8CB20DF800200621684689
:100B000000F01EFE0646F0B22146621C94B20DF8BB
:100B10000100C6F307202146621C94B20DF80100C3
:100B200088222046611C8CB20DF8002010212E482E
:100B300004F093FA002505E01DF8050004F03EF8E6
:100B4000681C85B2A542F7DB1021274804F083FA20
:100B500000202749087091E73846FFF7B4FD0120CF
:100B60001C4908700020244908700120234908709E
:100B700000201E49087022490860012021490870A0
:100B80000020214908702149086021480780012080
:100B90001749087000BF71E770B59AB000240026AD
:100BA0000C48007801286FD11048007801286BD1DB
:100BB00015480078012868D1FC222046611C8CB2BF
:100BC00001A90A54044802782046611C8CB201A98C
:100BD0000A541FE03C00002048000020490000208B
:100BE0004500002046000020000801403A00002097
:100BF0003D0000204B0000203E0000203800002077
:100C00002C000020390000203B0000203000002094
:100C100040000020FF4802782046611C8CB201A9E8
:100C20000A54FD4802782046611C8CB201A90A547E
:100C3000FA480088401CC2B22046611C8CB201A94F
:100C40000A5450222046611C8CB201A90A54062184
:100C500001A800F075FD06462146621C94B201AA67
:100C60005654C6F307202146621C94B201AA505480
:100C700088222046611C8CB201A90A541021E84840
:100C800004F0EBF9002507E0A2E01FE001A9485DB0
:100C900003F094FF681C85B2A542F7DB1021E04801
:100CA00004F0D9F90020DF490870DF490860DF4906
:100CB0000870DF490870DF490860DF490870DF49C4
:100CC0000870FFF7FCFC0020DD490870D34800885D
:100CD000FFF714FD01287BD10020D2490870D249CA
:100CE0000860D2490870D2490870D2490860D249D8
:100CF0000870D2490870FFF7E2FCD248007818B1BA
:100D0000D1480078012860D1FC222046611C8CB2B9
:100D100001A90A54CD4802782046611C8CB201A971
:100D20000A54BC4802782146601C84B201A842548F
:100D3000B94802782046611C8CB201A90A54B74810
:100D40000088401CC2B22046611C8CB201A90A5422
:100D5000BD480078012809D10020BB490870302225
:100D60002046611C8CB201A90A5405E020222046CD
:100D7000611C8CB201A90A54062101A800F0E0FC14
:100D800006462146621C94B201AA5654C6F30720B7
:100D90002146621C94B201AA505488222046611C4C
:100DA0008CB201A90A5410219D4804F056F900257F
:100DB00005E001A9485D03F001FF681C85B2A5426A
:100DC000F7DB1021964804F046F900209C49087092
:100DD0001AB070BD70B59AB000240026994800780A
:100DE000012841D19A480078F0BB9A480078012840
:100DF0003AD199480078C0BBFC222046611C8CB2D5
:100E000001A90A54914802782046611C8CB201A9BC
:100E10000A54804802782046611C8CB201A90A5409
:100E20007D4802782146601C84B201A842547B4868
:100E30000088401CC2B22046611C8CB201A90A5431
:100E400020222046611C8CB201A90A54062101A867
:100E500000F076FC06462146621C94B201AA565464
:100E6000C6F30720214601E073E01CE0621C94B247
:100E700001AA505488222046611C8CB201A90A5450
:100E80001021674804F0E9F8002505E001A9485D54
:100E900003F094FE681C85B2A542F7DB1021604880
:100EA00004F0D9F852E0FC222046611C8CB201A962
:100EB0000A54664802782046611C8CB201A90A5483
:100EC000544802782046611C8CB201A90A54524849
:100ED00002782046611C8CB201A90A544F48008850
:100EE000401CC2B22046611C8CB201A90A54602287
:100EF0002046611C8CB201A90A54062101A800F009
:100F00001FFC06462146621C94B201AA5654C6F341
:100F100007202146621C94B201AA50548822204620
:100F2000611C8CB201A90A5410213D4804F095F8C7
:100F3000002505E001A9485D03F040FE681C85B26C
:100F4000A542F7DB1021364804F085F8002041491E
:100F500008701AB070BD2DE9F0419AB00746002420
:100F600000264FF001083846FFF7EEFB012875D147
:100F70003846FFF729FC0020314908707AE12948FA
:100F8000007801286BD12C480078012868D12748C7
:100F9000007801287ED1FC222046611C8CB201A978
:100FA0000A542A4802782046611C8CB201A90A54CE
:100FB000184802782046611C8CB201A90A541648D0
:100FC00002782046611C8CB201A90A54134800889B
:100FD000401CC2B22046611C8CB201A90A54A02256
:100FE0002046611C8CB201A90A54062101A800F018
:100FF000A7FB06462146621C94B201AA5654C6F3CA
:1010000007202146621C94B201AA5054882220462F
:10101000611C26E04900002045000020400000201F
:10102000000801403C000020300000203B00002070
:10103000390000202C0000203A0000203800002059
:101040003D00002000000020470000204800002054
:1010500010000020110000203F0000200FE1F4E00C
:10106000B0E08CB201A90A541021FF4803F0F5FF4B
:10107000002505E001A9485D03F0A0FD681C85B2CC
:10108000A542F7DB1021F84803F0E5FF0020F749FF
:10109000087000E011E0F6490860F6490870F6496A
:1010A0000870F6490860F6490870F6490870FFF7BD
:1010B00006FB0020F44908708046F4480088FFF7DA
:1010C0001DFB01287ED10020E8490870E84908602E
:1010D000E8490870E8490870E8490860E84908707C
:1010E000E8490870FFF7EBFAFC222046611C8CB23D
:1010F00001A90A54E64802782046611C8CB201A975
:101100000A54E44802782046611C8CB201A90A54B2
:10111000E14802782046611C8CB201A90A54DB48E0
:101120000088401CC2B22046611C8CB201A90A543E
:10113000A0222046611C8CB201A90A54062101A8F4
:1011400000F0FEFA06462146621C94B201AA5654EB
:10115000C6F307202146621C94B201AA505488228B
:101160002046611C8CB201A90A541021BE4803F02C
:1011700074FF002505E001A9485D03F01FFD681C10
:1011800085B2A542F7DB1021B74803F064FFBF48E2
:101190000088502842DB642003F0BBFBFC22204681
:1011A000611C8CB201A90A54B94802782146601C1E
:1011B00084B201A84254B74802782046611C8CB220
:1011C00001A900E056E00A54B34802782046611CA9
:1011D0008CB201A90A54A3222046611C8CB201A939
:1011E0000A5490222046611C8CB201A90A5406219F
:1011F00001A800F0A5FA06462146621C94B201AA95
:101200005654C6F307202146621C94B201AA5054DA
:1012100088222046611C8CB201A90A5410219248F0
:1012200003F01BFF002505E001A9485D03F0C6FCA3
:10123000681C85B2A542F7DB10218B4803F00BFF39
:10124000002091490870804614E00020874908700A
:10125000874908608749087087490870874908608E
:101260008749087087490870FFF729FA00208649E6
:1012700008708046B8F1000F7FF481AE55E0FC2283
:101280002046611C8CB201A90A548148027820468C
:10129000611C8CB201A90A547E4802782046611C68
:1012A0008CB201A90A547C4802782046611C8CB299
:1012B00001A90A5475480088401CC2B22046611C2E
:1012C0008CB201A90A54A0222046611C8CB201A94B
:1012D0000A54062101A800F033FA06462146621C92
:1012E00094B201AA5654C6F307202146621C94B258
:1012F00001AA505488222046611C8CB201A90A54CC
:101300001021594803F0A9FE002505E001A9485D18
:1013100003F054FC681C85B2A542F7DB102152484B
:1013200003F099FE0020584908701AB0BDE8F0811A
:101330002DE9F0419AB00746002400264FF001083D
:101340003846FFF701FA01287DD13846FFF72DFB1B
:1013500000204D4908706EE144480078012873D19F
:1013600047480078012870D142480078012867D1A9
:10137000FC222046611C8CB201A90A544448027820
:101380002046611C8CB201A90A54424802782046CA
:10139000611C8CB201A90A543F4802782046611CA6
:1013A0008CB201A90A5439480088401CC2B22046B8
:1013B000611C8CB201A90A5450222046611C8CB2D7
:1013C00001A90A54062101A800F0BAF906462146EF
:1013D000621C94B201AA5654C6F307202146621C2F
:1013E00094B201AA505488222046611C8CB201A9F3
:1013F0000A5410211C4803F030FE002505E001A925
:10140000485D03F0DBFB681C85B2A542F7DB1021C9
:10141000154803F020FE00201449087014490860A4
:101420001449087014490870144908601449087078
:1014300014490870FFF743F90020134908708046EB
:101440001248008802E0FBE0E0E076E0FFF756F9A2
:10145000012872D100200549087005490860054936
:1014600008700549087019E0000801403C000020A0
:10147000300000203B000020390000202C0000201C
:101480003A000020380000203D00002040000020ED
:101490004800002049000020450000209B490860CA
:1014A0009B4908709B490870FFF709F9FC22204608
:1014B000611C8CB201A90A54974802782046611C2D
:1014C0008CB201A90A54954802782046611C8CB25E
:1014D00001A90A54924802782046611C8CB201A9E5
:1014E0000A5490480088401CC2B22046611C8CB24D
:1014F00001A90A5430222046611C8CB201A90A5469
:10150000062101A800F01CF906462146621C94B28F
:1015100001AA5654C6F307202146621C94B201AAC0
:10152000505488222046611C8CB201A90A54102113
:101530007D4803F092FD002506E07CE001A9485DAE
:1015400003F03CFB681C85B2A542F7DB102176480E
:1015500003F081FD73480088502840DB642003F0CD
:10156000D8F9FC222046611C8CB201A90A546A48B1
:1015700002782146601C84B201A842546748027870
:101580002046611C8CB201A90A54654802782046A5
:10159000611C8CB201A90A54A2222046611C8CB2A3
:1015A00001A90A5430222046611C8CB201A90A54B8
:1015B000062101A800F0C4F806462146621C94B238
:1015C00001AA5654C6F307202146621C94B201AA10
:1015D000505488222046611C8CB201A90A54102163
:1015E000514803F03AFD002505E001A9485D03F0EC
:1015F000E5FA681C85B2A542F7DB10214A4803F0E2
:101600002AFD002049490870804614E0002048491E
:1016100008704849086048490870484908703B49C3
:1016200008603B4908703B490870FFF748F8002004
:101630003E4908708046B8F1000F7FF48DAE55E04A
:10164000FC222046611C8CB201A90A54324802785F
:101650002046611C8CB201A90A5430480278204609
:10166000611C8CB201A90A542D4802782046611CE5
:101670008CB201A90A542B480088401CC2B22046F3
:10168000611C8CB201A90A5440222046611C8CB214
:1016900001A90A54062101A800F052F80646214685
:1016A000621C94B201AA5654C6F307202146621C5C
:1016B00094B201AA505488222046611C8CB201A920
:1016C0000A541021184803F0C8FC002505E001A9C0
:1016D000485D03F073FA681C85B2A542F7DB102160
:1016E000114803F0B8FC0020104908701AB0BDE89A
:1016F000F08110B504462046FFF72DFC10BD10B553
:1017000004462046FFF714FE10BD00002C00002008
:101710003A00002038000020480000204900002046
:101720004500002040000020000801403D0000204E
:101730003C000020300000203B0000203900002049
:1017400030B502460B464FF6FF70002112E0555CA3
:10175000684000240AE010F0010F01D1400803E0C6
:1017600040084AF201056840651CECB2082CF2DB27
:101770004D1CE9B29942EADB30BD2DE9F04100266B
:101780000027FF480688008810F4004F61D0C6F398
:101790000B06002441E0FB48005DAD2833D1002555
:1017A00006E06019F749085CF7494855681C85B29E
:1017B000701C8542F5D3F4488079F349C97900EB70
:1017C00001270621F048FFF7BBFFB8420BD0FF20EE
:1017D00003F0F4F9FE2003F0F1F90020E849088055
:1017E000FF20BDE8F081E848007A77280AD0FF2082
:1017F00003F0E4F9002003F0E1F90020E04908805B
:10180000FF20EEE70CE0701EA04204D10020DC496E
:101810000880FF20E5E7601C84B2701C8442BAD3C4
:1018200000BFD9484078D9490870D7488078D8494E
:101830000870D548C078D7490870D3480079D64990
:101840000870D1484079D54908700020CC490880FB
:10185000C7E7FE20C5E700B585B0D14800788DF810
:101860000000D04800788DF80100CF4800788DF84E
:101870000200CE4800788DF80300CD4800788DF83E
:101880000400CC4800788DF80500CB480068C0B251
:101890008DF80600C8480068000A8DF80700C748A0
:1018A0000068C0B28DF80800C4480068000A8DF8CE
:1018B00009000A226946002002F023F805B000BDA5
:1018C0002DE9F0439FB04FF0000900240026FFF7F8
:1018D00054FF8046B8F1000F37D1B9480078A0BB5B
:1018E0004FF0FE08FC222046611C8CB206A90A5467
:1018F000A64802782046611C8CB206A90A54A44866
:1019000002782046611C8CB206A90A54A1480078CE
:1019100018285DD2DFE800F00C0F121D20232629C5
:101920002C2F3235383B3E4144474A4D505356598F
:101930004FF001094DE04FF024094AE09648007845
:10194000A12803D14FF0370902E0FBE34FF0320941
:101950003FE04FF038093CE04FF0390939E04FF0F3
:10196000460936E04FF0400933E04FF0470930E0D8
:101970004FF041092DE04FF048092AE04FF04909A6
:1019800027E04FF0420924E04FF0500921E04FF0EA
:1019900051091EE04FF043091BE04FF0520918E0D7
:1019A0004FF0530915E04FF0540912E04FF055097C
:1019B0000FE04FF056090CE04FF0570909E04FF0E7
:1019C000580906E04FF0590903E04FF0450900E0DF
:1019D00000BF00BFB9F1470F70D021DCB9F1400F53
:1019E0006DD014DCB9F1370F6AD009DCB9F1010F01
:1019F00025D0B9F1240F64D0B9F1320F7ED155E171
:101A0000B9F1380F7BD0B9F1390F77D1C4E1A9F121
:101A10004100062872D2DFE800F0E9E8E7E6E5E4F5
:101A2000A9F14800122869D2DFE800F0ECEB686801
:101A300068686868EAE9E8E7E6E5E4E3E2E1554872
:101A400002782046611C8CB206A90A5452480278DA
:101A50002046611C8CB206A90A54504802782046E0
:101A6000611C8CB206A90A54062106A8FFF768FE7D
:101A700006462146621C94B206AA5654C6F30720B5
:101A80002146621C94B206AA505488222046611C4A
:101A90008CB206A90A5410214A4803F0DEFA002548
:101AA00005E006A9485D03F089F8681C85B2A542E7
:101AB000F7DB1021434803F0CEFA43E290E242E222
:101AC00057E10120404908704049087040490870BA
:101AD000304802782046611C8CB206A90A542E4870
:101AE00002782046611C8CB206A90A542B48027861
:101AF0002046611C8CB206A90A5401E0F8E324E1F7
:101B0000062106A8FFF71CFE06462146621C94B279
:101B100006AA5654C6F307202146621C94B206AAB0
:101B2000505488222046611C8CB206A90A54102108
:101B3000244803F092FA002505E006A9485D03F069
:101B40003DF8681C85B2A542F7DB10211D4803F063
:101B500082FA00201F4908700120194908701048B6
:101B60000078D8B302F02FFDC8BB642002F0D1FE8C
:101B700002F029FDA0BB012017490870002042E0B7
:101B8000500400205C0500206C0400204800002068
:101B90004900002045000020460000204A000020A7
:101BA00000000020010000200200002009000020A9
:101BB00003000020080000200C000020040000208A
:101BC0003D000020000801404B0000204C00002098
:101BD0003F00002047000020100000205FE01EE0D2
:101BE0001CE026E14AE3F1E3F1E3D6E36AE2EFE346
:101BF000EFE3EFE3EFE3EFE3EFE3EFE3EFE3EFE355
:101C0000EFE3F4E2ACE2FF490860FF490870FF49E6
:101C10000978491E88B2FEF7D7FD46E000E000BF14
:101C20000324FB4802782146641C06A84254F74866
:101C300002782146641C06A8425460222146641C96
:101C400042540621FFF77CFD06462246641C06A886
:101C50008654C6F307212246641C815488222146FB
:101C6000641C42541021EB4803F0F7F9002505E00D
:101C700006A9485D02F0A2FF681C85B2A542F7DB09
:101C80001021E44803F0E7F90020E3490870E34934
:101C90000870FEF714FD0020E149087005E0DB49FB
:101CA0000978491E88B2FEF78FFD4BE10120DD491E
:101CB0000870DD490870D64802782046611C8CB255
:101CC00006A90A54D14802782046611C8CB206A9A4
:101CD0000A54D64802782046611C8CB206A90A54E0
:101CE000062106A8FFF72CFD06462146621C94B289
:101CF00006AA5654C6F307202146621C94B206AACF
:101D0000505488222046611C8CB206A90A54102126
:101D1000C04803F0A2F9002505E006A9485D02F0DD
:101D20004DFF681C85B2A542F7DB1021B94803F0CE
:101D300092F90120BE490870B9490870B349097881
:101D4000491E88B2FEF731FEFCE0B0480078A328B7
:101D500005D10020B7490880B249087002E001208F
:101D6000B04908700120B04908700020B0490870DF
:101D7000E8E0A6480078A12805D10020AD490880F8
:101D8000A949087002E00120A74908700120A5496F
:101D90000870A7490870D5E0A4480078302847D1DA
:101DA0009B4802782046611C8CB206A90A549748C9
:101DB00002782146601C84B206A8425402F003FC5B
:101DC000012806D1A1222046611C8CB206A90A5422
:101DD00005E0A2222046611C8CB206A90A54062105
:101DE00006A8FFF7ADFC06462146621C94B206AA7F
:101DF0005654C6F307202146621C94B206AA5054DA
:101E000088222046611C8CB206A90A541021814800
:101E100003F023F9002505E006A9485D02F0CEFE97
:101E2000681C85B2A542F7DB10217A4803F013F94C
:101E300088E07E480078332840D101207E49087030
:101E4000734802782046611C8CB206A90A546F4878
:101E500002782046611C8CB206A90A54A3222046AF
:101E6000611C8CB206A90A54062106A8FFF768FC7B
:101E700006462146621C94B206AA5654C6F30720B1
:101E80002146621C94B206AA505488222046611C46
:101E90008CB206A90A5410215E4803F0DEF8002532
:101EA00005E006A9485D02F089FE681C85B2A542DE
:101EB000F7DB1021574803F0CEF843E05B48007889
:101EC00032283FD100205C490870514802782046F2
:101ED000611C8CB206A90A544C4802782046611C49
:101EE0008CB206A90A54A3222046611C8CB206A912
:101EF0000A54062106A8FFF723FC06462146621C69
:101F000094B206AA5654C6F307202146621C94B226
:101F100006AA505488222046611C8CB206A90A5495
:101F200010213C4803F099F8002505E006A9485D1A
:101F300002F044FE681C85B2A542F7DB102135484B
:101F400003F089F828E239480078402847D1304822
:101F500002782146601C84B206A842542B480278BD
:101F60002046611C8CB206A90A5402F041FB0128EC
:101F700006D1A5222046611C8CB206A90A5405E0B0
:101F8000A6222046611C8CB206A90A54062106A886
:101F9000FFF7D6FB06462146621C94B206AA5654A9
:101FA000C6F307202146621C94B206AA5054882228
:101FB0002046611C8CB206A90A541021154803F072
:101FC0004CF8002505E006A9485D02F0F7FD681C05
:101FD00085B2A542F7DB10210E4803F03CF8DBE1A7
:101FE0001248007844286CD102F032FB4FF4FA70AA
:101FF00002F08FFC02F032FB054802782046611C9B
:102000008CB21BE0340000201100002046000020AC
:1020100045000020000801403C0000203A0000205C
:102020003D0000204B0000204C0000204A00002012
:10203000470000204E0000200000002006A90A549E
:10204000FB4802782046611C8CB206A90A5402F0B3
:10205000CFFA012806D144222046611C8CB206A981
:102060000A5405E04F222046611C8CB206A90A548E
:10207000062106A8FFF764FB06462146621C94B2BF
:1020800006AA5654C6F307202146621C94B206AA3B
:10209000505488222046611C8CB206A90A54102193
:1020A000E44802F0DAFF002505E006A9485D02F0E9
:1020B00085FD681C85B2A542F7DB1021DD4802F0E2
:1020C000CAFF69E1DC480078502848D1DB48027833
:1020D0002046611C8CB206A90A54D54802782146D4
:1020E000601C84B206A84254D5480078012806D165
:1020F000A7222046611C8CB206A90A5405E0A8223A
:102100002046611C8CB206A90A54062106A8FFF7D6
:1021100017FB06462146621C94B206AA5654C6F323
:1021200007212046621C94B206AA11548822204638
:10213000611C8CB206A90A541021BE4802F08DFF22
:10214000002506E0FEE306A9485D02F037FD681CA5
:1021500085B2A542F7DB1021B64802F07CFF1BE1F7
:10216000B5480078552841D10120B549087002F0E2
:1021700055FAB24802782046611C8CB206A90A546E
:10218000AB4802782146601C84B206A84254A822BB
:102190002046611C8CB206A90A54062106A8FFF746
:1021A000CFFA06462146621C94B206AA5654C6F3DC
:1021B00007202146621C94B206AA50548822204669
:1021C000611C8CB206A90A5410219A4802F045FFFE
:1021D000002505E006A9485D02F0F0FC681C85B208
:1021E000A542F7DB1021934802F035FFD4E0924876
:1021F0000078522841D100209149087002F015FA68
:102200008E4802782046611C8CB206A90A54884880
:1022100002782046611C8CB206A90A54A9222046E5
:10222000611C8CB206A90A54062106A8FFF788FA99
:1022300006462146621C94B206AA5654C6F30720ED
:102240002146621C94B206AA505488222046611C82
:102250008CB206A90A541021764802F0FEFE002531
:1022600005E006A9485D02F0A9FC681C85B2A542FC
:10227000F7DB10216F4802F0EEFE8DE06E4800782B
:10228000AA2843D102F0D8F901206E4908706B48A2
:1022900002782046611C8CB206A90A546448027870
:1022A0002046611C8CB206A90A54D0222046611C2B
:1022B0008CB206A90A54062106A8FFF741FA064681
:1022C0002146621C94B206AA5654C6F30720214642
:1022D000621C94B206AA505488222046611C8CB21B
:1022E00006A90A541021534802F0B7FE002506E063
:1022F000F4E306A9485D02F061FC681C85B2A542C2
:10230000F7DB10214B4802F0A6FE45E04A48007872
:10231000A22841D102F096F900204A4908704748A6
:1023200002782046611C8CB206A90A544048027803
:102330002046611C8CB206A90A54D0222046611C9A
:102340008CB206A90A54062106A8FFF7F9F9064639
:102350002146621C94B206AA5654C6F307202146B1
:10236000621C94B206AA505488222046611C8CB28A
:1023700006A90A5410212F4802F06FFE002505E03F
:1023800006A9485D02F01AFC681C85B2A542F7DB7D
:102390001021284802F05FFE29E2274800786028D3
:1023A00077D120208DF8040018208DF8050030200A
:1023B0008DF8060000208DF8070078208DF80800C1
:1023C00010211C4802F049FE002511E0F4E332E13F
:1023D000F3E3F3E325E302E38DE209E2BFE177E112
:1023E000C5E060E001A9485D02F030FC681C85B2E0
:1023F000052DF7DB10210F4802F02DFE0F48027863
:102400002046611C8CB206A90A540948027820466D
:10241000611C8CB206A90A540B480078012815D11A
:10242000B2222046611C8CB206A90A5414E00000B6
:1024300046000020000801404A000020450000201E
:10244000010000200300002002000020B3222046EB
:10245000611C8CB206A90A54062106A8FFF770F980
:1024600006462146621C94B206AA5654C6F30720BB
:102470002146621C94B206AA505488222046611C50
:102480008CB206A90A541021FA4802F0E6FD002594
:1024900002E007E0681C85B2A542FBDB1021F5488D
:1024A00002F0D9FDA3E1F448007866285ED120202F
:1024B0008DF8040018208DF8050040208DF80600E6
:1024C000F1208DF8070078208DF808001021E948E8
:1024D00002F0C3FD002505E001A9485D02F0B6FB4E
:1024E000681C85B2052DF7DB1021E24802F0B3FD30
:1024F0000120E249087002F085F8E14802782046A0
:10250000611C8CB206A90A54DE4802782046611C80
:102510008CB206A90A54B4222046611C8CB206A9CA
:102520000A54062106A8FFF70BF906462146621C4D
:1025300094B206AA5654C6F307202146621C94B2F0
:1025400006AA505488222046611C8CB206A90A545F
:102550001021C84802F081FD002501E0681C85B209
:10256000A542FBDB1021C34802F075FD3FE1C248E4
:10257000007862285ED120208DF8040018208DF8A4
:10258000050040208DF80600F0208DF80700782027
:102590008DF808001021B74802F05FFD002505E026
:1025A00001A9485D02F052FB681C85B2052DF7DBDE
:1025B0001021B04802F04FFD0020B049087002F031
:1025C00027F8AF4802782046611C8CB206A90A544D
:1025D000AC4802782046611C8CB206A90A54B62287
:1025E0002046611C8CB206A90A54062106A8FFF7F2
:1025F000A7F806462146621C94B206AA5654C6F3B2
:1026000007202146621C94B206AA50548822204614
:10261000611C8CB206A90A541021964802F01DFDD7
:10262000002501E0681C85B2A542FBDB1021914822
:1026300002F011FDDBE090480078702847D1904807
:1026400002782046611C8CB206A90A548D48027893
:102650002046611C8CB206A90A5401F0BFFF012874
:1026600006D1B8222046611C8CB206A90A5405E0A6
:10267000B9222046611C8CB206A90A54062106A87C
:10268000FFF75EF806462146621C94B206AA56542D
:10269000C6F307202146621C94B206AA5054882231
:1026A0002046611C8CB206A90A541021714802F020
:1026B000D4FC002505E006A9485D02F07FFA681CFD
:1026C00085B2A542F7DB10216A4802F0C4FCE4E3BE
:1026D000694800787A2841D101206B490870FFF7DA
:1026E000BAF8674802782046611C8CB206A90A54E1
:1026F000664800682146621C94B206AA5054002025
:102700002146621C94B206AA5054062106A8FFF77F
:1027100017F806462146621C94B206AA5654C6F320
:1027200007202146621C94B206AA505488222046F3
:10273000611C8CB206A90A5410214E4802F08DFC8F
:10274000002505E006A9485D02F038FA681C85B24C
:10275000A542F7DB1021474802F07DFC9DE3464887
:102760000078722843D10020474908704749086023
:10277000FFF771F8424802782046611C8CB206A926
:102780000A54404802782046611C8CB206A90A54BB
:10279000C0222046611C8CB206A90A54062106A854
:1027A000FEF7CEFF06462146621C94B206AA565496
:1027B000C6F307202146621C94B206AA5054882210
:1027C0002046611C8CB206A90A541021294802F047
:1027D00044FC002505E006A9485D02F0EFF9681CFD
:1027E00085B2A542F7DB1021224802F034FC54E305
:1027F0002148007881287DD1002720208DF8040011
:1028000018208DF8050030208DF8060000208DF886
:10281000070078208DF808001021164802F01DFCF2
:10282000002505E001A9485D02F010FA681C85B298
:10283000052DF7DB10210F4802F00DFC104802783F
:102840002046611C8CB206A90A5401F0AFFF07466E
:10285000B7F57A7F1CD9AB222046611C8CB206A941
:102860000A54A7F57A70C2B22046611C8CB206A940
:102870000A5418E0000801404A000020020000202D
:102880004500002046000020090000200400002030
:10289000AA222046611C8CB206A90A542046611C5B
:1028A0008CB206A90F54062106A8FEF749FF06467A
:1028B0002146621C94B206AA5654C6F3072021464C
:1028C000621C94B206AA505488222046611C8CB225
:1028D00006A90A541021FA4802F0BFFB002502E0C5
:1028E00008E0681C85B2A542FBDB1021F44802F029
:1028F000B2FB00BFD1E220208DF8040018208DF833
:10290000050030208DF8060000208DF807007820A3
:102910008DF808001021EA4802F09FFB002505E031
:1029200001A9485D02F092F9681C85B2052DF7DB1C
:102930001021E34802F08FFBE24802782046611C38
:102940008CB200E0ACE206A90A54DF480068B0F59A
:102950007A7F10D9AB222046611C8CB206A90A549A
:10296000D9480068A0F57A70C2B22046611C8CB2CA
:1029700006A90A540DE0AA222046611C8CB206A9C1
:102980000A54D1480068C2B22046611C8CB206A924
:102990000A54062106A8FEF7D3FE06462146621C0D
:1029A00094B206AA5654C6F307202146621C94B27C
:1029B00006AA505488222046611C8CB206A90A54EB
:1029C0001021BF4802F049FB002501E0681C85B2D8
:1029D000A542FBDB1021BA4802F03DFB5DE220205E
:1029E0008DF8040018208DF8050030208DF80600C1
:1029F00000208DF8070078208DF808001021B048DD
:102A000002F02BFB002505E001A9485D02F01EF94C
:102A1000681C85B2052DF7DB1021A94802F01BFBCD
:102A20003BE2AA480078AA2802D0AB2878D15FE020
:102A300020208DF8040018208DF8050041208DF825
:102A40000600A34800788DF8070078208DF808006C
:102A500010219B4802F001FB002505E001A9485D1B
:102A600002F0F4F8681C85B2052DF7DB10219448BC
:102A700002F0F1FA9648007893490860914802788C
:102A80002046611C8CB206A90A54A9222046611C6A
:102A90008CB206A90A54C2222046611C8CB206A937
:102AA0000A54062106A8FEF74BFE06462146621C84
:102AB00094B206AA5654C6F307202146621C94B26B
:102AC00006AA505488222046611C8CB206A90A54DA
:102AD00010217B4802F0C1FA002502E0DCE1681C0D
:102AE00085B2A542FBDB1021754802F0B4FA67E01D
:102AF00020208DF8040018208DF8050041208DF865
:102B000006007348007840F080008DF807007820B8
:102B10008DF8080010216A4802F09FFA002506E0AF
:102B20004DE001A9485D02F091F8681C85B2052DC1
:102B3000F7DB1021624802F08EFA6548007800F554
:102B40007A70614908605F4802782046611C8CB247
:102B500006A90A54A9222046611C8CB206A90A546F
:102B6000C3222046611C8CB206A90A54062106A87D
:102B7000FEF7E6FD06462146621C94B206AA5654AC
:102B8000C6F307202146621C94B206AA505488223C
:102B90002046611C8CB206A90A541021484802F054
:102BA0005CFA002501E0681C85B2A542FBDB102120
:102BB000434802F050FA03E06DE1D9E002E000BFC3
:102BC00000BF6AE141480078AA2802D0AB2876D13C
:102BD0005DE020208DF8040018208DF805004220CB
:102BE0008DF806003A4800788DF8070078208DF8B7
:102BF00008001021324802F030FA002505E001A952
:102C0000485D02F023F8681C85B2052DF7DB102122
:102C10002B4802F020FA2E4800782B4908602948FA
:102C200002782146601C84B206A84254A92220469C
:102C3000611C8CB206A90A54C4222146601C84B2CD
:102C400006A842540621FEF77BFD06462146621C7B
:102C500094B206AA5654C6F307202146621C94B2C9
:102C600006AA505488222046611C8CB206A90A5438
:102C70001021134802F0F1F9002501E0681C85B22B
:102C8000A542FBDB10210E4802F0E5F96EE02020A2
:102C90008DF8040018208DF8050041208DF80600FD
:102CA0000B48007840F080008DF8070078208DF800
:102CB00008001021024802F0D0F9002510E054E08D
:102CC00000080140450000200C00002046000020C4
:102CD0004A00002001A9485D01F0B8FF681C85B2D8
:102CE000052DF7DB1021F94802F0B5F9F848007816
:102CF00000F57A70F7490860F74802782046611CB1
:102D00008CB206A90A54A9222046611C8CB206A9DD
:102D10000A54C5222046611C8CB206A90A54062119
:102D200006A8FEF70DFD06462146621C94B206AACF
:102D30005654C6F307202146621C94B206AA50548A
:102D400088222046611C8CB206A90A541021DF4853
:102D500002F083F9002501E0681C85B2A542FBDB87
:102D60001021DA4802F077F900E000BF00BF94E0DC
:102D7000DA480078A9287ED1D5480078982841D132
:102D80000120D7490870D44802782046611C8CB2D3
:102D900006A90A54D14802782046611C8CB206A9C3
:102DA0000A54CB4802782046611C8CB206A90A540A
:102DB000062106A8FEF7C4FC06462146621C94B212
:102DC00006AA5654C6F307202146621C94B206AAEE
:102DD000505488222046611C8CB206A90A54102146
:102DE000BA4802F03AF9002505E006A9485D01F06D
:102DF000E5FE681C85B2A542F7DB1021B34802F05E
:102E00002AF945E0B2480078992841D10020B44918
:102E10000870B14802782046611C8CB206A90A5499
:102E2000AE4802782046611C8CB206A90A54A84814
:102E300002782046611C8CB206A90A54062106A815
:102E4000FEF77EFC06462146621C94B206AA565442
:102E5000C6F307202146621C94B206AA5054882269
:102E60002046611C8CB206A90A541021974802F032
:102E7000F4F8002506E00CE006A9485D01F09EFE8E
:102E8000681C85B2A542F7DB1021904802F0E3F8F8
:102E900000BF00BF01E000BF00BF00BFFEF7DBFCCA
:102EA0001FB0BDE8F08310B500238E48038800886A
:102EB00010F4004F2BD0C3F30B0300211FE08A480E
:102EC000405C202811D1884C481C205C18280CD16B
:102ED000002206E08818844C205C844CA054501CCE
:102EE00082B2581C8242F5D30CE0581E884204D1AD
:102EF00000207C4C2080FF2010BD481C81B2581C53
:102F00008142DCD300BF0020764C2080F4E7FE2015
:102F1000F2E7F0B599B000240026FFF7C4FF07469A
:102F2000F7BBFE27FC222046611C8CB20DF8002066
:102F30006F4802782046611C8CB20DF800206D4865
:102F400002782146601C84B20DF801206748807821
:102F5000302806D040287ED041287DD042287CD120
:102F600029E25D4800780B2806D011284BD01228A2
:102F700074D0132873D1F5E0574802782046611CBD
:102F80008CB20DF80020A7222046611C8CB20DF8EF
:102F9000002056488079012808D1B222214600E05D
:102FA0004FE2601C84B20DF8012005E0B3222046F8
:102FB000611C8CB20DF8002006216846FEF7C0FBAC
:102FC0000646F0B22146621C94B20DF80100C6F329
:102FD00007202146621C94B20DF801008822204689
:102FE000611C8CB20DF800201021384802F035F831
:102FF000002505E01DF8050001F0E0FD681C85B224
:10300000A542F7DBF8E0344802782046611C8CB218
:103010000DF800203548C07810F0800F06D0AB22A4
:103020002046611C8CB20DF8002005E0AA22204643
:10303000611C8CB20DF800202C48C07800F07F0095
:103040002146621C94B20DF8010006216846FEF785
:1030500077FB064604E0D1E068E1F1E122E0CAE056
:10306000F0B22146621C94B20DF80100C6F30720AD
:103070002146621C94B20DF8010088222046611C92
:103080008CB20DF800201021104801F0E6FF002559
:1030900005E01DF8050001F091FD681C85B2A54210
:1030A000F7DBA9E00C4802782146601C84B20DF8D9
:1030B00001200E48007910F0800F1DD0AB22204671
:1030C000611C8CB20DF800201CE0000000080140DB
:1030D0004A0000200C00002045000020460000208F
:1030E0000800002052040020C0050020D004002069
:1030F0004800002049000020AA222046611C8CB212
:103100000DF80020FF48007900F07F002146621C86
:1031100094B20DF8010006216846FEF711FB064641
:10312000F0B22146621C94B20DF80100C6F30720EC
:103130002146621C94B20DF8010088222046611CD1
:103140008CB20DF800201021EF4801F086FF002519
:1031500005E01DF8050001F031FD681C85B2A542AF
:10316000F7DB49E0E94802782046611C8CB20DF893
:103170000020E448407910F0800F06D0AB222046B2
:10318000611C8CB20DF8002005E0AA222046611CCB
:103190008CB20DF80020DB48407900F07F0021461A
:1031A000621C94B20DF8010006216846FEF7C8FAC9
:1031B0000646F0B22146621C94B20DF80100C6F337
:1031C00007202146621C94B20DF801008822204697
:1031D000611C8CB20DF800201021CB4801F03DFF9E
:1031E000002505E01DF8050001F0E8FC681C85B22B
:1031F000A542F7DB00E000BF00BF21E1C348007833
:103200000C2802D00D287ED145E0C0480278204627
:10321000611C8CB20DF80020BD4802782046611C6C
:103220008CB20DF80020B748C078012806D1B4222E
:103230002046611C8CB20DF8002005E0B522204626
:10324000611C8CB20DF8002006216846FEF778FA62
:103250000646F0B22146621C94B20DF80100C6F396
:1032600007202146621C94B20DF8010088222046F6
:10327000611C8CB20DF800201021A34801F0EDFE76
:10328000002505E01DF8050001F098FC681C85B2DA
:10329000A542F7DB48E09D4802782046611C8CB2CD
:1032A0000DF800209A4802782046611C8CB20DF877
:1032B00000209448C078012806D1B6222046611C1F
:1032C0008CB20DF8002005E0B7222046611C8CB2BC
:1032D0000DF8002006216846FEF732FA0646F0B2E5
:1032E0002146621C94B20DF80100C6F30720214666
:1032F000621C94B20DF8010088222046611C8CB239
:103300000DF8002000E00EE010217F4801F0A5FE3E
:10331000002505E01DF8050001F050FC681C85B291
:10332000A542F7DB00E000BF00BF89E077480278E4
:103330002046611C8CB20DF80020A9222046611C99
:103340008CB20DF800206F48C078012806D1C22247
:103350002046611C8CB20DF8002005E0C3222046F7
:10336000611C8CB20DF8002006216846FEF7E8F9D2
:103370000646F0B22146621C94B20DF80100C6F375
:1033800007202146621C94B20DF8010088222046D5
:10339000611C8CB20DF8002010215B4801F05DFE2D
:1033A000002505E01DF8050001F008FC681C85B249
:1033B000A542F7DB44E0554802782046611C8CB2F8
:1033C0000DF80020A9222046611C8CB20DF80020C7
:1033D0004C48C078012806D1C4222046611C8CB21A
:1033E0000DF8002005E0C5222046611C8CB20DF8C6
:1033F000002006216846FEF7A3F90646F0B22146F2
:10340000621C94B20DF80100C6F307202146621C2D
:1034100094B20DF8010088222046611C8CB20DF890
:1034200000201021384801F018FE002505E01DF8A5
:10343000050001F0C3FB681C85B2A542F7DB00BFA5
:1034400000BF19B0F0BD10B532480078012802D194
:1034500001F0E4F801E001F0E8F82F4800780128D5
:1034600002D101F0E9F801E001F0ECF82B48007816
:10347000012802D101F0C6F801E001F0C9F810BD41
:1034800000B585B00A226946002000F02FFA9DF8A9
:103490000000234908709DF801001E4908709DF83E
:1034A00002001E4908709DF803001E4908709DF82F
:1034B0000400194908709DF805001B4908709DF823
:1034C00006001A4908609DF80700096841EA0020D3
:1034D000164908609DF80800154908609DF8090024
:1034E000096841EA0020124908600D48007830B1AF
:1034F0000B480078012802D00020094908700548CF
:10350000007817E0D00400200008014045000020AA
:1035100046000020010000200300002002000020DF
:103520000000002009000020080000200C000020FE
:103530000400002030B118480078012802D0002093
:10354000154908701548007830B1144800780128F2
:1035500002D00020114908701148007830B110489D
:103560000078012802D000200D4908700D4800782D
:1035700030B10C480078012802D0002009490870B9
:103580000948007830B108480078012802D00020AE
:103590000549087005B000BD0100002002000020B0
:1035A00009000020030000200800002008B540208A
:1035B000ADF8000003208DF8020010208DF8030004
:1035C0006946F84801F09CFC08BD08B54020ADF8FC
:1035D000000003208DF8020048208DF803006946A2
:1035E000F04801F08DFC08BD08B52020EE490860C8
:1035F000ADF800004FF003008DF802004FF010000E
:103600008DF803006946E74801F07AFC2020E7497D
:10361000C1F810084020E4490860FFF7C7FF08BD63
:1036200007E0022100E000BF0A00A1F10103D9B2C6
:10363000F9D10200A0F10103D8B2F2D1704710B560
:10364000FFF7B4FF0120FFF7EBFF4020D6490860E9
:103650004FF00100FFF7E4FF2020D449C1F8100823
:103660000120FFF7DDFF4020D14908604FF0010045
:10367000FFF7D6FF2020CD49C1F814080120FFF73D
:10368000CFFF10BD10B5FFF791FF0120FFF7C8FF76
:103690002020C74908604FF00100FFF7C1FF40201C
:1036A000C249C1F814080120FFF7BAFF2020BE4923
:1036B00008604FF00100FFF7B3FF4020BB49C1F89D
:1036C00010080120FFF7ACFF10BD70B50446FFF7EE
:1036D0006DFF002522E014F0800F03D04020B24996
:1036E000086002E04020B24908602020B04908602C
:1036F0004FF00100FFF794FF2020AC49C1F81008FB
:103700000120FFF78DFF2020A94908604FF001003C
:10371000FFF786FF6006040E681CC5B2082DDADBD1
:10372000FFF753FF0120FFF77BFF20209E49086031
:103730004FF00100FFF774FF9C48D0F8080810F024
:10374000400F03D000209B49087002E001209949F6
:1037500008700120FFF764FF20209549086070BDC4
:1037600070B5FFF723FF002440208F490860FFF762
:103770002CFF08251BE00120FFF752FF20208C4979
:1037800008604FF00100FFF74BFF20208749C1F888
:1037900010080120FFF744FF6006040E8648006809
:1037A00010F0400F01D0601CC4B2681EC5B2002DDD
:1037B000E1D120207E4908604FF00100FFF730FF83
:1037C000FFF703FF204670BD10B50446FFF7EEFE7D
:1037D0001CB140207449086002E040207449086030
:1037E0000120FFF71DFF20206F4908604FF0010006
:1037F000FFF716FF20206D49C1F814080120FFF7DC
:103800000FFF10BD2DE9F04180460C4615461F46BE
:10381000FFF715FF4046FFF758FF6648007810B9DC
:103820000020BDE8F0812012FFF74FFF61480078CB
:1038300008B90020F5E7E0B2FFF747FF5D480078E0
:1038400008B90020EDE700260AE02878FFF73DFFE1
:103850005848007808B90020E3E76D1C701C86B258
:10386000BE42F2DBFFF70EFF0120DAE72DE9F0415F
:1038700007460D4614469846FFF7E1FE3846FFF727
:1038800024FF4C48007810B90020BDE8F0812812D0
:10389000FFF71BFFE8B2FFF718FF4648007808B9AA
:1038A0000020F2E7FFF7CBFE781CC0B2FFF70DFF58
:1038B0004048007808B90020E7E7002608E0FFF755
:1038C0004FFF20700020FFF77FFF641C701C86B242
:1038D000A8F10100B042F2DCFFF742FF20700120A6
:1038E000FFF772FFFFF7CEFE0120CEE770B504466A
:1038F0000D46164633462A462146A020FFF7B6FF5E
:1039000070BD70B504460D46164633462A4621461C
:10391000A020FFF777FF70BD7CB504460D4620124E
:103920008DF80000E0B28DF8010028128DF8020039
:10393000E8B28DF80300042269464FF4F050FFF717
:10394000E0FF7CBD7CB50446042269464FF4F0508C
:10395000FFF7CCFF9DF8000004029DF8010004432E
:103960009DF8020005029DF803000543294613A0B7
:1039700003F0A6FA214614A003F0A2FA28467CBD63
:103980002DE9F04104460D4616466019B0F5F05F8A
:1039900020DA2A4631462046FFF7B3FF601984B289
:1039A0003CE00000001801401018014000100140E8
:1039B0001418014050000020081801406C656E3D4D
:1039C000253032780A000000616464723D2530328F
:1039D000780A00006019B0F5F05F06D12A4631463A
:1039E0002046FFF78EFF002418E06019B0F5F05F65
:1039F00014DD6019A0F5F0501FFA80F8C4F5F050FE
:103A000087B23A4631462046FFF77BFF00243E440A
:103A1000424631462046FFF774FF44462046BDE843
:103A2000F0812DE9F04104460D4616466019B0F5C7
:103A3000F05F05DC2A4631462046FFF757FF17E0C6
:103A40006019B0F5F05F13DD6019A0F5F0501FFAB2
:103A500080F8C4F5F05087B23A4631462046FFF769
:103A600045FF00243E44424631462046FFF73EFFD4
:103A7000BDE8F08108B54FF4A06001F065F91C20A5
:103A80008DF8000000208DF8010003208DF8020061
:103A900001208DF80300684601F05BF908BD0EB502
:103AA0000121084601F0ECFC4FF0804001F04CFF92
:103AB0004FF47A70ADF804004720ADF80000002004
:103AC000ADF8020069464FF0804002F011F8012184
:103AD000880702F0F9FD01221146900702F05DFB14
:103AE0000121880702F033FB0121084601F0C8FCE0
:103AF0000121084601F0C4FC0121880702F027FBE0
:103B00000EBD10B50121880702F0E1FDF0B30121DF
:103B1000880702F0EDFD37480078012811D13648BA
:103B20000068401C3449086008460068B0F57A7F98
:103B300007D900202F4908702F49086001202F491C
:103B400008702F480078012812D12E480068401CC8
:103B50002C4908600846006842F21071884207D973
:103B6000002027490870274908600120264908706D
:103B70002648007801282AD125480068401C24499D
:103B8000086008460068B0F5FA7F00E030E00ED922
:103B900000F019FD012807D11E49087000201B49BB
:103BA00008701B49086002E000201B490870184893
:103BB000006842F21071884209D901201649087044
:103BC0001449087000201149087011490860134811
:103BD0000068401C114908600846006847F23051EF
:103BE000884205D900200D49086001200C49087061
:103BF00010BD0000380000202C0000203A000020FA
:103C000039000020300000203B0000201000002080
:103C100034000020110000203F000020540000204C
:103C20000A000020704710B5012002F005FF10B116
:103C3000012002F012FF10BD08B50121402001F063
:103C400012FC1020ADF800008DF8030003208DF861
:103C500002006946034801F053F91021014801F0C0
:103C6000FAF908BD000801401FB50121042001F048
:103C7000FAFB0121082001F0F6FB0121102001F0E0
:103C8000F2FB0121202001F0EEFB0121402001F098
:103C9000EAFB0121084601F0E6FB0121FF4801F0A3
:103CA000FEF94FF48070ADF80C0010208DF80F0075
:103CB00003208DF80E0003A9F94801F021F94FF413
:103CC0008071F74801F0C9F98020ADF80C00102090
:103CD0008DF80F0003208DF80E0003A9F04801F0C5
:103CE0000FF98021EE4801F0B8F94020ADF80C0042
:103CF00010208DF80F0003208DF80E0003A9E8486E
:103D000001F0FEF84021E64801F0A7F92020ADF8C7
:103D10000C0010208DF80F0003208DF80E0003A971
:103D2000DF4801F0EDF82021DD4801F096F9102080
:103D3000ADF80C008DF80F0003208DF80E0003A9DC
:103D4000D74801F0DDF81021D54801F086F90820A8
:103D5000ADF80C0010208DF80F0003208DF80E0038
:103D600003A9CF4801F0CCF80821CD4801F075F93E
:103D70008020ADF80C0010208DF80F0003208DF886
:103D80000E0003A9C74801F0BBF88021C54801F027
:103D900064F94020ADF80C0010208DF80F000320CE
:103DA0008DF80E0003A9BF4801F0AAF84021BD48D4
:103DB00001F053F92020ADF80C0010208DF80F0011
:103DC00003208DF80E0003A9B64801F099F82021D0
:103DD000B44801F042F91020ADF80C008DF80F0046
:103DE00003208DF80E0003A9AE4801F089F81021D8
:103DF000AC4801F032F90820ADF80C0010208DF825
:103E00000F0003208DF80E0003A9A64801F078F8F2
:103E10000821A44801F021F90420ADF80C0010207D
:103E20008DF80F0003208DF80E0003A99D4801F0C6
:103E300067F804219B4801F010F90220ADF80C004E
:103E400010208DF80F0003208DF80E0003A995486F
:103E500001F056F80221934801F0FFF80120ADF877
:103E60000C0010208DF80F0003208DF80E0003A920
:103E70008C4801F045F801218A4801F0EEF84FF432
:103E80008050ADF80C0010208DF80F0003208DF845
:103E90000E0003A9844801F033F84FF480518248A2
:103EA00001F0DBF84FF40060ADF80C0010208DF845
:103EB0000F0003208DF80E0003A97B4801F020F8C5
:103EC0004FF40061784801F0C8F84FF48060ADF815
:103ED0000C0010208DF80F0003208DF80E0003A9B0
:103EE000714801F00DF84FF480616F4801F0B5F8AA
:103EF0004FF40040ADF80C0010208DF80F000320A7
:103F00008DF80E0003A9694800F0FAFF4FF4004154
:103F1000664801F0A2F84FF40070ADF80C0048209C
:103F20008DF80F0003208DF80E0003A9604800F003
:103F3000E7FF8020ADF80C0048208DF80F0003202B
:103F40008DF80E0003A95A4800F0DAFF4FF4004044
:103F5000ADF80C0048208DF80F0003208DF80E00FE
:103F600003A9504800F0CCFF4FF40050ADF80C000E
:103F700048208DF80F0003208DF80E0003A9494852
:103F800000F0BEFF4FF40060ADF80C0048208DF843
:103F90000F0003208DF80E0003A9424800F0B0FF87
:103FA0004FF40070ADF80C0048208DF80F0003208E
:103FB0008DF80E0003A93B4800F0A2FF4FF400402B
:103FC000ADF80C0048208DF80F0003208DF80E008E
:103FD00003A9334800F094FF4FF40050ADF80C00F3
:103FE00048208DF80F0003208DF80E0003A92C48FF
:103FF00000F086FF4FF48070ADF80C0048208DF87B
:104000000F0003208DF80E0003A9294800F078FF67
:104010004020ADF80C0048208DF80F0003208DF8EB
:104020000E0003A9224800F06BFF4FF48040ADF86A
:104030000C0048208DF80F0003208DF80E0003A916
:10404000184800F05DFF4FF48050ADF80C00482098
:104050008DF80F0003208DF80E0003A9114800F021
:104060004FFF4FF48060ADF80C0048208DF80F0032
:1040700003208DF80E0003A90A4800F041FF4FF419
:104080008070ADF80C0048208DF80F0003208DF8EB
:104090000E0003A9034800F033FF0BE000023000DC
:1040A000000C0140001401400020014000080140C4
:1040B000001001404FF48040ADF80C0048208DF80E
:1040C0000F0003208DF80E0003A9F84800F018FF38
:1040D0004FF48050ADF80C0048208DF80F000320FD
:1040E0008DF80E0003A9F14800F00AFF0220ADF898
:1040F0000C0010208DF80F0003208DF80E0003A98E
:10410000EA4800F0FDFE0221E84800F0A4FF01208B
:10411000ADF80C0010208DF80F0003208DF80E0074
:1041200003A9E24800F0ECFE0121E04800F093FF13
:104130002020ADF80C0010208DF80F0003208DF822
:104140000E0003A9DA4800F0DBFE2021D84800F079
:1041500082FF4FF48070ADF80C0010208DF80F0036
:1041600003208DF80E0003A9D24800F0C9FE4FF4D9
:104170008071D04800F06FFF8020ADF80C00102057
:104180008DF80F0003208DF80E0003A9C94800F038
:10419000B7FE8021C74800F05EFF2020ADF80C007C
:1041A00004208DF80F0003208DF80E0003A9C248EB
:1041B00000F0A6FE4020ADF80C0048208DF80F005E
:1041C00003208DF80E0003A9BB4800F099FE0121E1
:1041D000084601F048F90621002000F0A5FF402024
:1041E000019000208DF8080008208DF809000120BA
:1041F0008DF80A0001A802F0B2FB17208DF800002C
:1042000002208DF8010000208DF8020001208DF8B9
:104210000300684600F09DFD0420ADF80C008DF809
:104220000F0003208DF80E0003A9A14800F068FEDE
:104230001FBD10B504460A2C39D2DFE804F0050B87
:1042400010151A1F24292E334FF48071974800F05F
:1042500002FF2DE08021954800F0FDFE28E040217E
:10426000924800F0F8FE23E02021904800F0F3FE91
:104270001EE010218D4800F0EEFE19E008218B4869
:1042800000F0E9FE14E080218C4800F0E4FE0FE02D
:1042900040218A4800F0DFFE0AE02021874800F034
:1042A000DAFE05E01021854800F0D5FE00E000BFF1
:1042B00000BF10BD10B504460A2C39D2DFE804F067
:1042C000050B10151A1F24292E334FF480717748DF
:1042D00000F0C3FE2DE08021744800F0BEFE28E00F
:1042E0004021724800F0B9FE23E020216F4800F021
:1042F000B4FE1EE010216D4800F0AFFE19E0082169
:104300006A4800F0AAFE14E080216C4800F0A5FE87
:104310000FE04021694800F0A0FE0AE02021674834
:1043200000F09BFE05E01021644800F096FE00E0DE
:1043300000BF00BF10BD10B50446082C31D2DFE825
:1043400004F004090E13181E242A08215B4800F00B
:1043500082FE27E00421594800F07DFE22E0022180
:10436000564800F078FE1DE00121544800F073FE2D
:1043700018E04FF48051524800F06DFE12E04FF407
:1043800000614F4800F067FE0CE04FF480614C483C
:1043900000F061FE06E04FF40041474800F05BFE8C
:1043A00000E000BF00BF10BD10B50446082C31D29C
:1043B000DFE804F004090E13181E242A08213F48E0
:1043C00000F04BFE27E004213C4800F046FE22E0CE
:1043D00002213A4800F041FE1DE00121374800F07B
:1043E0003CFE18E04FF48051354800F036FE12E0F4
:1043F0004FF40061324800F030FE0CE04FF4806171
:104400002F4800F02AFE06E04FF400412A4800F051
:1044100024FE00E000BF00BF10BD70B50546082DAA
:1044200068D2DFE805F0040F19242F3A515C4FF4ED
:1044300000711F4800F0F5FD012801D1012400E0C2
:10444000002458E080211A4800F0EBFD012801D13A
:10445000012400E000244EE04FF40041174800F032
:10446000E0FD012801D1012400E0002443E04FF4E5
:104470000051124800F0D5FD012801D1012400E0CF
:10448000002438E04FF400610C4800F0CAFD012818
:1044900001D1012400E000242DE04FF40071074811
:1044A00000F0BFFD01280DD101240CE0000C0140FB
:1044B00000100140001801400008014000140140B4
:1044C00000200140002416E04FF40041664800F04F
:1044D000A8FD012801D1012400E000240BE04FF4E5
:1044E0000051614800F09DFD012801D1012400E048
:1044F000002400E000BF00BF204670BD70B5054637
:10450000082D5CD2DFE805F0040F19242F3A45503E
:104510004FF48071554800F084FD012801D1012439
:1045200000E000244CE04021504800F07AFD0128D2
:1045300001D1012400E0002442E04FF480414C48C6
:1045400000F06FFD012801D1012400E0002437E0D4
:104550004FF48051464800F064FD012801D1012448
:1045600000E000242CE04FF48061414800F059FD48
:10457000012801D1012400E0002421E04FF48071E2
:104580003B4800F04EFD012801D1012400E0002449
:1045900016E04FF48071364800F043FD012801D148
:1045A000012400E000240BE04FF48071304800F05B
:1045B00038FD012801D1012400E0002400E000BF03
:1045C00000BF204670BD10B520212A4800F029FD0B
:1045D000012801D1002010BD0120FCE710B54021C9
:1045E000244800F01EFD012800D110BD0020FCE78A
:1045F00010B504211D4800F014FD012800D110BDA4
:104600000020FCE710B50221174800F026FD10BD80
:1046100010B50221144800F01EFD10BD10B54FF476
:104620008071154800F019FD10BD10B54FF4807170
:10463000114800F010FD10BD10B501210A4800F02E
:104640000CFD10BD10B50121074800F004FD10BDA0
:1046500010B52021054800F000FD10BD10B5202147
:10466000024800F0F8FC10BD000C014000100140B1
:1046700000140140000801400018014008B5012164
:10468000042000F0F0FE0120ADF8000000208DF8BD
:10469000030069467E4800F033FC0121042000F04D
:1046A000E2FE0220ADF8000000208DF8030069460C
:1046B000774800F025FC08BD00B591B001210846FF
:1046C00000F0C4FE734802F017F873480690734870
:1046D0000790002008901420099000200A90802064
:1046E0000B9040000C9080000D9020200E90000256
:1046F0000F900020109006A9664802F09DF8012155
:10470000644802F0C4F80121480200F0ACFE002029
:10471000019001208DF808008DF809004FF4602009
:1047200003900020049002208DF8140001A95A483B
:104730004C3802F0CAF905230122002156484C38B2
:1047400002F05BFA05230222012153484C3802F0A3
:1047500054FA012150484C3802F0EEF901214E483C
:104760004C3802F0DEF94C484C3802F0FCF900BF3E
:1047700049484C3802F0FCF90028F9D146484C3839
:1047800002F000FA00BF44484C3802F000FA00285A
:10479000F9D1012140484C3802F003FA11B000BDB4
:1047A00010B5FFF76BFFFFF787FF10BD70B5002155
:1047B00005E03A4D35F821502C444D1CE9B20A2948
:1047C000F7DB4FF4377565434FF47A76B5FBF6F5B2
:1047D0000A26B5FBF6F24FF4EB75554341F2EC3681
:1047E000B61AB5FBF6F3002114E02D4D05EBC1051B
:1047F0006D689D420BD32A4E4D1C06EBC5056D68B6
:104800009D4204D2354655F83100002104E00020D5
:104810004D1CE9B27E29E8DB00BF70BD70B50021F8
:1048200006E01E4D05EB81056D882C444D1CE9B258
:104830000A29F6DB4FF4377565434FF47A76B5FBFA
:10484000F6F50A26B5FBF6F24FF4EB75554341F247
:10485000EC36B61AB5FBF6F3002114E0104D05EB6B
:10486000C1056D689D420BD30D4E4D1C06EBC50571
:104870006D689D4204D2354655F83100002104E0B0
:1048800000204D1CE9B27E29E8DB00BF70BD0000AE
:1048900000080140080002404C240140340500207B
:1048A0005C00002010B56FF0040000F0A6FA2A4862
:1048B00000682A49B0FBF1F02949087008460078E1
:1048C0004FF47A7148432749088010BD0146244AB5
:1048D00012784A434FF0E0235A6100229A611A4647
:1048E000126942F001021A6100BF4FF0E022106924
:1048F00010F0010F02D010F4803FF6D04FF0E0220C
:10490000126922F001024FF0E0231A6100229A613D
:1049100070470146134A12884A434FF0E0235A6118
:1049200000229A611A46126942F001021A6100BF20
:104930004FF0E022106910F0010F02D010F4803F18
:10494000F6D04FF0E022126922F001024FF0E0238E
:104950001A6100229A6170471800002000127A0044
:104960004C0400204E04002010B54FF4A06000F06D
:10497000EBF910BD014600BF704700BFD74A12884F
:1049800012F0400FFAD0C2B2D54B1A80704710B562
:10499000044644B10021D34801F064FE0121D1480E
:1049A00001F0D5FB03E00021CE4801F0D0FB10BDA3
:1049B0007FB505460C460121042000F061FDADF8ED
:1049C0000450ADF800400020ADF80600ADF802003C
:1049D0006946C44801F08CF801221146C14801F033
:1049E000DCFB1E208DF80C0001208DF80D0002204C
:1049F0008DF80E0001208DF80F0003A800F0A9F932
:104A00007FBD10B586B004460121480400F038FD92
:104A1000012144F2050000F026FD0420ADF8140049
:104A200003208DF8160018208DF8170005A9AE4850
:104A300000F066FA0820ADF8140004208DF8170085
:104A400005A9A94800F05CFA26208DF80000002096
:104A50008DF801008DF8020001208DF803006846F2
:104A600000F077F901940020ADF80800ADF80A00D5
:104A7000ADF80C00ADF810000C20ADF80E0001A947
:104A80009A4800F09EFD012240F22551974800F01F
:104A900030FE0121954800F020FE0121084600F07B
:104AA000EFFC0121880701F052FB002090490880AB
:104AB00041F61F4140F2DE30FFF77AFF0020FFF79A
:104AC00066FF06B010BD10B586B00446012188040B
:104AD00000F0D6FC0121092000F0C5FC18208DF85B
:104AE00017004FF48060ADF8140003208DF8160015
:104AF00005A9804800F004FA04208DF81700400250
:104B0000ADF8140003208DF8160005A9794800F0CF
:104B1000F7F927208DF8000001208DF80100002012
:104B20008DF8020001208DF80300684600F011F9AD
:104B300001940020ADF80800ADF80A00ADF80C00B3
:104B4000ADF810000C20ADF80E0001A96A4800F085
:104B500038FD012240F22551674800F0CAFD0121CD
:104B6000654800F0BAFD00206449088006B010BD19
:104B700010B501215B4801F0AAFDF0B15C48008846
:104B8000002805DD5A48008840F400405849088054
:104B90005A480088002805DD5848008840F4004045
:104BA000564908801021504800F055FA01214D481F
:104BB00001F09EFD0020FFF7EAFE10BD10B504468F
:104BC0001021494800F049FA2146484800F0F5FD17
:104BD00000BF8021454800F05EFE0028F9D010BDDE
:104BE00010B540F22551414800F06BFE10B33F482C
:104BF00000F0E7FDC4B23E48008810F4004F24D115
:104C00003B480088642816DA1021374800F025FA5E
:104C10000021344801F026FD3548008810B90120F4
:104C2000FFF7B5FE324801880088401C304A1080EA
:104C30003348445409E02E48008840F400402C4991
:104C400008801021284800F006FA10BD10B504466F
:104C50001021254800F001FA2146274800F0ADFD5B
:104C600000BF8021244800F016FE0028F9D010BDB6
:104C700010B540F22551204800F023FE10B31E4825
:104C800000F09FFDC4B21D48008810F4004F24D1ED
:104C90001A480088642816DA1021134800F0DDF95C
:104CA0000021104801F0DEFC1448008810B90120F2
:104CB000FFF76DFE114801880088401C0F4A1080E4
:104CC0001048445409E00D48008840F400400B4966
:104CD00008801021044800F0BEF910BD00380140E2
:104CE0000438014000080040000801400044004032
:104CF00050040020000C01400048004052040020F5
:104D00005C050020C005002009488047094800478D
:104D1000FEE7FEE7FEE7FEE7FEE7FEE7FEE7FEE76B
:104D2000FEE7FEE704480549054A064B70470000C8
:104D3000F90400083101000888060020880C0020D2
:104D4000880800208808002036490143364A11604F
:104D5000704770B5002100230F22C4784CB3324C49
:104D6000246804F4E064C4F5E0644FEA1421C1F15E
:104D7000040322FA01F2447804FA03F1847804EA85
:104D8000020444EA01014FEA0111284C0678A155BA
:104D9000047804F01F054FF0010404FA05F40578C7
:104DA0004FEA65154FF0E02606EB8505C5F8004192
:104DB00009E0047804F01F050124AC401C4D06787E
:104DC000761145F8264070BD1A4A0A4002431A4B34
:104DD0001A60704741B1194A126842EA00024FF066
:104DE000E023C3F8102D07E0144A126822EA0002FB
:104DF0004FF0E023C3F8102D7047042808D14FF07E
:104E0000E021096941F004014FF0E022116107E05F
:104E10004FF0E021096921F004014FF0E022116117
:104E2000704700000000FA050CED00E000E400E02F
:104E300080E100E080FFFF1F08ED00E010ED00E0E2
:104E400010B50446CA48844208D10121042000F06C
:104E500024FB0021042000F020FB46E0C5488442EA
:104E600008D10121082000F018FB0021082000F0E3
:104E700014FB3AE0C048844208D10121102000F020
:104E80000CFB0021102000F008FB2EE0BB48844200
:104E900008D10121202000F000FB0021202000F09B
:104EA000FCFA22E0B648844208D10121402000F0FB
:104EB000F4FA0021402000F0F0FA16E0B1488442F4
:104EC00008D10121802000F0E8FA0021802000F0C4
:104ED000E4FA0AE0AC48844207D10121801500F0D1
:104EE000DCFA0021A01500F0D8FA10BD10B50121A0
:104EF000084600F0D2FA0021012000F0CEFA10BDE1
:104F00002DE9F04102460025002600200023002460
:104F1000002791F803C00CF00F0591F803C01CF0B6
:104F2000100F03D091F802C04CEA0505B1F800C09B
:104F30001CF0FF0F31D0146800202BE04FF0010C63
:104F40000CFA00F3B1F800C00CEA03069E4220D12F
:104F500083004FF00F0C0CFA03F7BC4305FA03FC77
:104F60004CEA040491F803C0BCF1280F06D14FF0BD
:104F7000010C0CFA00FCC2F814C00AE091F803C05E
:104F8000BCF1480F05D14FF0010C0CFA00FCC2F83F
:104F900010C0401C0828D1D31460B1F800C0BCF187
:104FA000FF0F34DD546800202EE000F1080C4FF0B4
:104FB000010808FA0CF3B1F800C00CEA03069E429F
:104FC00021D183004FF00F0C0CFA03F7BC4305FA14
:104FD00003FC4CEA040491F803C0BCF1280F05D18E
:104FE00000F1080C08FA0CF8C2F8148091F803C01C
:104FF000BCF1480F07D100F1080C4FF0010808FA86
:105000000CF8C2F81080401C0828CED35460BDE8CC
:10501000F0814FF6FF710180022181700421C1707F
:1050200070470246002093680B4201D0012000E047
:10503000002070470146886880B270470246002011
:10504000D3680B4201D0012000E0002070470146E8
:10505000C86880B2704701617047416170470AB10A
:10506000016100E041617047C16070474FF48032D8
:105070000A43826181618261826982697047024666
:105080000020424B18684FF68073184040EA021027
:1050900008433E4B186070473D49C8617047F0B502
:1050A0000A46002300240021002500F00046B6F146
:1050B000004F02D1354EF16901E0344E7168C0F302
:1050C000034583B200F44016B6F5401F08D121F025
:1050D00070612E4E766826F070662C4F7E6012E06E
:1050E00000F48016B6F5801F06D1032606FA05F4F3
:1050F000A14341F0706106E0460D360103FA06F661
:10510000B14341F0706122B1460D360103FA06F653
:10511000314300F00046B6F1004F02D11B4EF16161
:1051200001E01A4E7160F0BD30B500228B071C0FF4
:105130000F2303FA04F2154B08338C1053F8243074
:105140009343124C08348D1044F8253023468C10BC
:1051500053F824308C07240F00FA04F423430B4C3B
:1051600008348D1044F8253030BD0A490860704776
:1051700000080140000C01400010014000140140F3
:1051800000180140001C01400020014000000140C7
:1051900000002042DC002042DB48006840F00100B3
:1051A000D949086008464068D8490840D64948604F
:1051B00008460068D6490840D34908600846006898
:1051C00020F4802008600846406820F4FE00486013
:1051D0004FF41F0088607047CB49096821F4803183
:1051E000C94A11601146096821F480211160B0F5A7
:1051F000803F03D0B0F5802F0ED106E0C249096888
:1052000041F48031C04A116007E0BF49096841F4A8
:10521000A021BD4A116000E000BF00BF704710B57B
:1052200001460022002300204A11012A02D1B64C77
:10523000236806E0022A02D1B34C236A01E0B24C93
:10524000636A01F01F02012494401C4201D0012036
:1052500000E0002010BD70B500240025002600BF2E
:105260003120FFF7DCFF0646641CB4F5A06F01D0C7
:10527000002EF5D03120FFF7D2FF08B1012500E064
:105280000025284670BD014600209F4A106820F086
:10529000F80040EAC100106070479E4908607047FE
:1052A00002460020984B586820F47C1042EA010323
:1052B0001843954B586070479649086670470146F9
:1052C0000020914A506820F0030008435060704766
:1052D0008D48406800F00C007047014600208A4A63
:1052E000506820F0F00008435060704701460020ED
:1052F000854A506820F4E0600843506070470146DA
:105300000020814A506820F4605040EAC10050609B
:10531000704729B17C4A527A02437B4B5A7206E0AD
:10532000794A527AC343DBB21A40774B5A727047BC
:1053300079490860704701460020734A506820F49C
:1053400040400843506070470021744A11706E4A13
:1053500082F82010012802D0042808D103E001219E
:105360006E4A117004E005216C4A117000E000BF24
:1053700000BF70476A49086070476349096A014382
:10538000614A1162704767490860704730B5002173
:105390000022002400235C4D6D6805F00C0121B152
:1053A000042905D0082923D105E05F4D056022E0DE
:1053B0005D4D05601FE0544D6D6805F47012524D4F
:1053C0006D6805F48034022505EB92421CB9574DF7
:1053D000554305600BE04C4D6D6815F4003F03D05C
:1053E000524D5543056002E04F4D5543056002E0C4
:1053F0004D4D056000BF00BF434D6D6805F0F001E5
:1054000009094B4D6B5C0568DD4045603E4D6D689C
:1054100005F4E061090A464D6B5C4568DD40856036
:10542000394D6D6805F46051C90A414D6B5C4568A2
:10543000DD40C560344D6D6805F44041890B3D4D3C
:105440006B5CC568B5FBF3F5056130BD29B12E4A2B
:10545000526902432C4B5A6104E02B4A5269824341
:10546000294B5A61704729B1274A92690243264B5A
:105470009A6104E0244A92698243234B9A617047FF
:1054800029B1214AD26902431F4BDA6104E01E4A66
:10549000D26982431C4BDA61704729B11A4AD2683B
:1054A0000243194BDA6004E0174AD2688243164B74
:1054B000DA60704729B1144A12690243124B1A612B
:1054C00004E0114A126982430F4B1A6170471A496E
:1054D000086070470F49C86470470B49C87170472E
:1054E0000948406A40F080700749486270470146A9
:1054F0000020054A92680A4201D0012000E0002005
:105500007047014988727047001002400000FFF8A0
:10551000FFFFF6FE00004242D80042422010024047
:10552000800442423C04424200127A0000093D00DD
:1055300058040020680400204004424210B504468C
:10554000FC48844209D101218803FFF7A6FF00210E
:105550004FF48040FFF7A1FF32E0F748844209D1C1
:1055600001214804FFF7A6FF00214FF40030FFF7A8
:10557000A1FF25E0F148844209D101218804FFF709
:1055800099FF00214FF48020FFF794FF18E0EC48CA
:10559000844209D10121C804FFF78CFF00214FF498
:1055A0000020FFF787FF0BE0E648844208D1012185
:1055B0000805FFF77FFF00214FF48010FFF77AFF07
:1055C00010BD2DE9F04786B005460E460024A246E0
:1055D00000BFA1460027B08900B100BF2F462C8A2A
:1055E0004CF6FF700440F08804432C82AC894EF6E0
:1055F000F3100440B088318908437189084304439B
:10560000AC81AC8A4FF6FF400440B0890443AC82C1
:1056100001A8FFF7BBFEC748874202D1DDF810A002
:1056200001E0DDF80CA0A88910F4004F08D00AEBC7
:10563000CA0000EB0A1031684900B0FBF1F807E03E
:105640000AEBCA0000EB0A1031688900B0FBF1F8E0
:105650006420B8FBF0F004012009642101FB1089EB
:10566000A88910F4004F08D0322000EBC900B0FB2D
:10567000F1F000F00700044308E0322000EB0910CD
:105680006421B0FBF1F000F00F0004432C8106B060
:10569000BDE8F0874FF41651016000218180C18080
:1056A00001810C21418100218181704710B50246A2
:1056B0000020108A4FF2FF0318400B884C882343C8
:1056C0008C882343CC8823431843108210BD0021CB
:1056D000018041808180C180704721B1828942F47C
:1056E0000052828104E082894DF6FF731A40828164
:1056F0007047F0B503460024002600250020A1F5E0
:1057000010676A3F00D100BF1846C1F3421401F090
:105710001F06012707FA06F5012C01D10C3004E021
:10572000022C01D1103000E014301AB107682F4369
:10573000076002E00768AF430760F0BD10B51AB11B
:10574000838A0B43838204E0838ACC43A4B2234040
:10575000838210BD028A4FF6F0731A400282028AD9
:105760000A430282704782894FF2FF731A40828196
:1057700082890A438281704721B1828942F0020204
:10578000828104E082894FF6FD731A40828170475E
:10579000028A4FF6DF731A400282028A0A430282AB
:1057A000704721B1028A42F48042028204E0028AF8
:1057B0004BF6FF731A4002827047C1F308028280E1
:1057C000704701468888C0F308007047818941F01E
:1057D000010181817047028BD2B20283028B42EABF
:1057E000012202837047028B02F47F420283028B04
:1057F0000A430283704721B1828A42F020028282EA
:1058000004E0828A4FF6DF731A408282704721B12A
:10581000828A42F01002828204E0828A4FF6EF739D
:105820001A408282704721B1828A42F00802828245
:1058300004E0828A4FF6F7731A408282704721B1E2
:10584000828942F40042828103E08289C2F30E021F
:105850008281704721B1828A42F40062828204E030
:10586000828A4FF2FF731A4082827047828A4FF613
:10587000FB731A408282828A0A438282704721B176
:10588000828A42F00202828204E0828A4FF6FD732D
:105890001A408282704702460020B1F5007F00D195
:1058A00000BF13880B4201D0012000E000207047A8
:1058B00001F40072B2F5007F00D100BFCA4302803C
:1058C000704770B502460024002300250020A1F592
:1058D00010666A3E00D100BFC1F3421501F01F03FC
:1058E000012606FA03F3012D02D19689334006E022
:1058F000022D02D1168A334001E0968A33400C1201
:10590000012606FA04F41688344013B10CB10120C4
:1059100000E0002070BD10B500220023A1F5106446
:105920006A3C00D100BF0A1201249440A3B2DC43B8
:10593000048010BD00380140004400400048004091
:10594000004C00400050004010B50446FF4884421F
:1059500008D10121C014FFF7A0FD0021E014FFF7DA
:105960009CFDC4E0B4F1804F08D101210846FFF747
:10597000A1FD00210120FFF79DFDB8E0F44884421D
:1059800008D101210220FFF795FD00210220FFF739
:1059900091FDACE0EF48844208D101210420FFF7DB
:1059A00089FD00210420FFF785FDA0E0EA4884423C
:1059B00008D101210820FFF77DFD00210820FFF715
:1059C00079FD94E0E548844208D101211020FFF7D9
:1059D00071FD00211020FFF76DFD88E0E048844252
:1059E00008D101212020FFF765FD00212020FFF7CD
:1059F00061FD7CE0DB48844208D101214014FFF7BF
:105A00004CFD00216014FFF748FD70E0D648844249
:105A100009D10121C804FFF740FD00214FF4002007
:105A2000FFF73BFD63E0D148844209D1012108051D
:105A3000FFF733FD00214FF48010FFF72EFD56E0F5
:105A4000CB48844209D101214805FFF726FD0021FA
:105A50004FF40010FFF721FD49E0C648844208D109
:105A600001214020FFF726FD00214020FFF722FD05
:105A70003DE0C148844208D101218020FFF71AFD92
:105A800000218020FFF716FD31E0BC48844208D198
:105A900001218015FFF70EFD0021A015FFF70AFD7B
:105AA00025E0B748844209D101210804FFF7F5FC3D
:105AB00000214FF48030FFF7F0FC18E0B148844239
:105AC00009D101214804FFF7E8FC00214FF4003020
:105AD000FFF7E3FC0BE0AC48844208D101218804C5
